:1000000063C0000088C0000086C0000084C00000FB
:1000100082C0000080C000007EC000007CC00000E4
:100020007AC000000C94350B76C0000074C000004C
:1000300072C00000C2C700006EC000006CC00000AB
:100040006AC0000068C0000066C0000064C0000014
:1000500062C0000060C000005EC000005CC0000024
:100060005AC0000058C000004005460549054C052F
:100070004F055205550558055B055E05610564058C
:10008000B0B1B2B3B4B5B6B700B8B9BABBBCBDBEB7
:10009000BF004D617A6500736F6C766572003E67D4
:1000A00033323E3E633332004C3136206364656741
:1000B0007265673400000000000000001F1F1F1F52
:1000C0001F1F1F00CB0BCC0B11241FBECFEFD8E09E
:1000D000DEBFCDBF11E0A0E0B1E0E6E2F6E202C093
:1000E00005900D92A834B107D9F711E0A8E4B1E06A
:1000F00001C01D92AF3BB107E1F710E0C6ECD0E0C4
:1001000004C02297FE010E94FE11C43CD107C9F72A
:10011000B0D00C94071374CFAAE0B0E0E2E9F0E0AD
:100120000C94CF1180ED97E00E94090CCED080E8AE
:1001300090E00E94EC0980E061E00E94330989E8C8
:1001400090E00E94EC098EE990E028D788EE93E0D9
:100150000E946F0B0E94610982E990E00E94EC0905
:1001600080E061E00E94330987E990E00E94EC0999
:1001700088EE93E01AC082D37C010E9461090027B7
:10018000F7FC0095102FC801B7010E94DD0980E03F
:1001900091E00E94FA0980E061E00E94330983E067
:1001A00091E00E94FA0984E690E00E946F0B80E1E2
:1001B0000E94E70A8823F9F280E10E94330B88EE5F
:1001C00093E00E946F0B0CEE1FEF0832110528F030
:1001D00088E290E068ED7FEF04C088ED9FEF68E271
:1001E00070E00E94E50A81E00E94D60B84E190E075
:1001F0000E946F0B0F5F1F4F0C33110531F780E02A
:1002000090E060E070E00E94E50A6E010894C11C75
:10021000D11C17C0C60161E00E94CF0B7C010E9477
:10022000610900E010E0C801B7010E94DD0980E02B
:1002300061E00E943309C60129D084E690E00E9463
:100240006F0B80E10E94E70A882321F380E10E947E
:10025000330B0E9461098BE091E00E94FA0988EA61
:1002600090E09CD60DD38823E9F72A96E8E00C9419
:10027000EB1152DFCDD080E090E060E070E00E94B2
:10028000E50A88EC90E00E946F0BFBCF0F931F9361
:10029000CF93DF938C01C0E0D0E0F801EC0FFD1F9D
:1002A0008081918165E670E00E946111FB01E15F50
:1002B000FE4F80810E94FC092296CA30D10569F761
:1002C000DF91CF911F910F9108950F931F9305EB2D
:1002D00010E0C80160E00E94210AC801019661E0B7
:1002E0000E94210AC801029662E00E94210AC80108
:1002F000039663E00E94210AC801049664E00E940C
:10030000210AC801059665E00E94210AC8010696E7
:1003100066E00E94210AD5D71F910F9108951F937F
:10032000CF93DF93EC01162F633008F454C0262FCF
:1003300030E0FC01E20FF31F32978081823409F034
:100340004AC021503040FE01E20FF31F2F5F3F4FA4
:1003500061E070E080E090E040814C3429F042356B
:1003600049F0423449F403C0825F9E4F05C08C546B
:100370009F4F02C0865A9F4F6F5F7F4F3197643007
:10038000710551F768E671E00E9475118A35910593
:1003900091F08B3591051CF4892B41F01BC0843BF7
:1003A000910571F08E509140A9F40FC0C20FD31F78
:1003B000239783E50EC0C20FD31F239782E509C0A0
:1003C000C20FD31F239782E404C0C20FD31F239709
:1003D0008CE488831250812FDF91CF911F91089573
:1003E0001F93CF93DF93EC01162FFC01E60FF11D55
:1003F000108267D7CE01FED7193030F080E061E07F
:1004000032D7CE010896F6D7DF91CF911F9108958C
:10041000AF92BF92CF92DF92FF920F931F93DF9321
:10042000CF93CDB7DEB7CE56D0400FB6F894DEBF2F
:100430000FBECDBF1B861C861D861E86FE013F9605
:1004400080E6DF011D928A95E9F7FF245E0108949A
:10045000A11CB11C9BE0C92ED12CCC0EDD1EBAD044
:1004600082E390E062E370E00E94E50A82E390E0BC
:100470000E946F0BC50161E00E94CF0B89819A81B8
:100480008536910510F012E001C010E089859A854B
:100490008536910508F0116088E290E068E270E02E
:1004A0000E94E50A88EC90E00E946F0BC50161E0B4
:1004B0000E94CF0B2B813C81293C310550F48D816A
:1004C0009E81893C910528F48F819885893C91050E
:1004D00070F014602955324050F08D819E8189550D
:1004E000924028F08F81988589559240A0F4812F01
:1004F000EED0182FFAD0F601EF0DF11D1083F39412
:10050000C6016F2D0CDFF81611F0F82EF9CFC601D9
:100510006F2D66DFA4CF8BE0C82ED12CCC0EDD1E54
:100520005601AF0CB11C80E090E060E070E00E94EA
:10053000E50A89E191E03FD51FC00E94B30B20ED91
:1005400037E040E050E00E948811685E73408040D0
:10055000904058F4B6D68FE191E04CD780E061E04E
:1005600082D687E291E046D703C0C6016F2D38DFFF
:100570008EE190E00E946F0B80E10E94E70A8823E1
:10058000E1F280E10E94E70A8823D9F788EE93E040
:100590000E946F0B860119C01DD082E390E062E3D8
:1005A00070E00E94E50A82E390E00E946F0B88E20F
:1005B00090E068E270E00E94E50A88EC90E00E941A
:1005C0006F0BD8018D918D0190D00A151B0521F775
:1005D00001D0A9CFAAE0B0E0E0EFF2E00C94C511A1
:1005E00066247724AA24BB2465011E010894211CDB
:1005F000311C6CE3462E512CC10161E00E94CF0BEF
:1006000050E3852E58EF952E880E991EC401AA2717
:1006100097FDA095BA2FA80EB91ECA1EDB1EC601F3
:10062000B50120E137E240E050E00E94AA117901D3
:100630008A01940126193709C901880F991F820F71
:10064000931F62E070E00E9475119B012E0D3F1D0B
:10065000C40164E170E00E947511260F371F2D332D
:10066000310574F48FEF243C38071CF424EC3FEF81
:1006700002C037FF07C0C901CC966CE370E007C029
:100680002CE330E0B201621B730B8CE390E09DD74A
:100690008B819C818436910550F48D819E818436B6
:1006A000910528F48F8198858436910560F08981C1
:1006B0009A81893C910538F4340189859A85893C71
:1006C000910508F499CF2A96E2E10C94E11181FF9B
:1006D00002C08CE4089582FF02C083E5089580FD86
:1006E00002C082E4089582E508958C3429F08235B1
:1006F00041F08234B1F40DC080EB9FEF60E570E013
:1007000004C080E590E060EB7FEF5FD788EC90E07D
:10071000E6C780E590E060EB7FEF57D780E991E096
:10072000DEC70895EF92FF920F931F93982F8032A8
:1007300078F487E880937A0080917C0080648076EA
:10074000892B80937C0080917A00806480937A006A
:1007500080917A0086FDFCCFFB01EE24FF24870107
:1007600080917A00806480937A0080917A0086FD7F
:10077000FCCF80917C0085FF04C08091790090E0DF
:1007800004C08091780090917900A0E0B0E0E80E7C
:10079000F91E0A1F1B1F319719F7CB0196958795F4
:1007A0006034710538F48E0D9F1D70E00E94611158
:1007B0009B010DC0A0E0B0E0E80EF91E0A1F1B1F50
:1007C0009B0140E050E0C801B7010E948811C901B7
:1007D0001F910F91FF90EF900895A0E0B0E020915D
:1007E0002F013091300140E050E0BC01CD010E946A
:1007F00036119B01AC0180917C0085FF0BC0B901D3
:10080000CA0161587F4F8F4F9F4F2FEF30E040E07C
:1008100050E00AC0B901CA0161507E4F8F4F9F4F0F
:100820002FEF33E040E050E00E948811C9010895A5
:1008300079DFD3CF1F9310917C0080917C008F7D56
:1008400080937C0086E06AE070E0F2DFAC0115FD89
:1008500004C080917C008F7D03C080917C00806209
:1008600080937C009A01220F331F240F351F2F5FC6
:100870003F4F36952795C9011F910895DBCF089505
:1008800080913101882339F020E0809149019091D5
:100890004A01892B09F021E0822F0895A0E0B0E001
:1008A000E4E5F4E00C94CD11FC015B01C42E8091D1
:1008B00048018823C9F481E08093480110926F00B9
:1008C00083E28093800081E1809381001092820016
:1008D00080E197E2909389008093880010928B00CA
:1008E00010928A00229A789410923101F7FD03C089
:1008F000DD24D39403C0FF772AE0D22E80918100BB
:10090000082F10E0087F107088ECD89EC0011124D9
:100910008E179F07C0F4EF0187E2E131F80710F06E
:10092000C0E1D7E2BE017695679580E090E060581F
:10093000794687469F4F9E0140E050E00E94881113
:100940007901016024C088E2D89E802D1124C82F2F
:10095000D0E0CE17DF0708F4EF01BE01769567956A
:100960009E0140E050E08AE0D81639F480E090E043
:10097000605E734481449F4F06C080E090E0605306
:100980007D4E8C4E9F4F0E948811790102608AE053
:10099000D81639F4CE0105966AE070E00E94611124
:1009A000EB0183E0C83ED80711F4B5010FC0BE01CA
:1009B00080E090E0950140E050E00E94361128EE82
:1009C00033E040E050E00E94AA11B90110926F009C
:1009D00000938100F0928900E0928800E091880005
:1009E000F0918900AC2DA03108F0AFE080E190E0FB
:1009F0008A1B910902C0F695E7958A95E2F7F09374
:100A00008B00E0938A007093500160934F0186B38E
:100A10008FEF86BB81E080936F00CDB7DEB7EAE051
:100A20000C94E911CF93DF93EB018F3F11F0442336
:100A300029F488EE93E0BE0140E067C0813110F4F4
:100A400020E005C0282F2051203608F02FE5822F06
:100A50006CE00E945511382F682F70E084EF9FEFF3
:100A6000689FF001699FF00D789FF00D1124E20F4F
:100A7000F11DEC30F10538F4EC5CFF4F0C94FC11E7
:100A80008CE991E023C080E090E020C085EB91E00C
:100A90001DC08FEC91E01AC08AEE91E017C087E08C
:100AA00092E014C086E292E011C087E492E00EC0AA
:100AB00089E692E00BC08EE892E008C085EB92E0F8
:100AC00005C08EED92E002C08AE093E0373071F00D
:100AD00002C0880F991F6A95E2F7323020F0059620
:100AE0006AE070E00BC0805090480BC036E0880F81
:100AF000991F3A95E1F7029665E070E00E94611156
:100B0000CB01403108F04FE0BE01C8DEDF91CF914C
:100B1000089530914D01E0914901F0914A0133234C
:100B200011F0249101C02081822F81548A3108F470
:100B3000205E203259F48091490190914A0101963A
:100B400090934A0180934901019729F7822F0895D4
:100B5000CF93DF93DEDF282FC0E0D0E01CC0CE01B2
:100B600053E0880F991F5A95E1F7CC0FDD1FC80F8E
:100B7000D91F822F992787FD9095C80FD91FE0971D
:100B80008091490190914A01019690934A01809386
:100B90004901BFDF282F822F80538A3000F3CE0116
:100BA000DF91CF910895A0E0B0E0E9EDF5E00C947D
:100BB000CB1180903201B0904B01BB2021F06091AD
:100BC0004C01662399F4A0904C01009137011091DB
:100BD0003801E0903301F0903401C0913501D0919B
:100BE0003601C0903901D0903A0103C18FEF70E017
:100BF00040E018DF10924C01C0C194E0892EBB2464
:100C000004EF11E084E0E82EF12CC0EDD7E0B4E071
:100C10009B2EAFE0CA2ED12C7CDF282F809149017A
:100C200090914A01019690934A018093490126369A
:100C300009F498C02736CCF42236A1F1233674F497
:100C40002E3361F12F3334F42132B9F22C3309F011
:100C500006C126C0213609F002C11CC1243609F4A0
:100C600051C025360CF066C035C02F3609F4BFC020
:100C7000203754F42C3609F4A5C02D3609F4A5C04C
:100C8000273609F0ECC086C0243709F4CEC02637D9
:100C900009F4E2C0223709F0E2C0ADC08394BCCFB2
:100CA0008A94BACFA0924C01B0924B0110933801B4
:100CB00000933701F0923401E0923301D093360172
:100CC000C093350190923201D0923A01C09239011D
:100CD0002BE0F7C0A0924C01B0924B011093380169
:100CE00000933701F0923401E0923301D093360142
:100CF000C093350190923201D0923A01C0923901ED
:100D000020E0DFC0A0924C01B0924B01109338015B
:100D100000933701F0923401E0923301D093360111
:100D2000C093350190923201D0923A01C0923901BC
:100D300022E0C7C0A0924C01B0924B011093380141
:100D400000933701F0923401E0923301D0933601E1
:100D5000C093350190923201D0923A01C09239018C
:100D600024E0AFC0A0924C01B0924B011093380127
:100D700000933701F0923401E0923301D0933601B1
:100D8000C093350190923201D0923A01C09239015C
:100D900025E097C0A0924C01B0924B01109338010E
:100DA00000933701F0923401E0923301D093360181
:100DB000C093350190923201D0923A01C09239012C
:100DC00027E07FC0C5DE7C0141C0A3DE8C3611F474
:100DD000BB2403C0AA24BB24B39480914901909101
:100DE0004A01019690934A018093490115CFB0DEE4
:100DF000882E982C11CFA0924C01B0924B011093E9
:100E0000380100933701F0923401E0923301D0931E
:100E10003601C093350190923201D0923A01C092CE
:100E2000390120E0FF24F3944DC092DEBC0180EC38
:100E30009DE50E946111CB01EB01F3E0CC0FDD1FBA
:100E4000FA95E1F7880F991FC80FD91FCE01B70196
:100E50000E9461118B01E0CE7BDE6C01DDCEA092A1
:100E60004C01B0924B011093380100933701F0927E
:100E70003401E0923301D0933601C0933501909252
:100E80003201D0923A01C092390110924A01109277
:100E9000490173C0A0924C01B0924B0110933801EC
:100EA00000933701F0923401E0923301D093360180
:100EB000C093350190923201D0923A01C09239012B
:100EC00029E0FF248CE0889EC0011124E22EE80E68
:100ED0000AC08091490190914A01019690934A017C
:100EE00080934901E39415DE8B3299F3833289F3C1
:100EF0000BC08091490190914A01019690934A015B
:100F000080934901EA9405DE8D3299F3C09137014F
:100F1000D09138018153883050F4009135011091FF
:100F2000360116DEBC01C8010E946111EB018E0181
:100F30000BC08091490190914A01019690934A011A
:100F400080934901C00FD11F16950795E2DD8E32BF
:100F500081F380914B01882339F0CE0196958795D6
:100F600080934C01C81BD109FF2011F0EE24EA94B4
:100F70008E2DBE014091390155DDCDB7DEB7ECE0D5
:100F80000C94E71110926F0090934A0180934901ED
:100F900081E080934D0110924C0105CEF3CF08956E
:100FA00010926F0090934A018093490110924D0175
:100FB00010924C01F8CDF4CF08951F920F920FB606
:100FC0000F9211242F933F934F935F936F937F93CF
:100FD0008F939F93AF93BF93EF93FF9380914F01B4
:100FE0009091500101979093500180934F01019689
:100FF00009F510926F00789480918100887F81605C
:101000008093810080E197E290938900809388002B
:1010100010928B0010928A0081E0809331018091C0
:10102000490190914A01892B29F080914E01882332
:1010300009F4B9DDFF91EF91BF91AF919F918F912D
:101040007F916F915F914F913F912F910F900FBEC4
:101050000F901F901895EF92FF920F931F936AB114
:1010600057985A98289AE0905501F09056010091AF
:1010700057011091580120E030E041E050E0CA01F2
:101080006F9364E06A95F1F76F910197C9F75C9AE5
:10109000CA016F9364E06A95F1F76F910197C9F700
:1010A00089B15C98FA016F9364E06A95F1F76F91EA
:1010B0003197C9F75C9AFA016F9364E06A95F1F78A
:1010C0006F913197C9F75C9887FF0BC02C5F3F4F3A
:1010D000C901A0E0B0E08E159F05A007B10708F494
:1010E000CECF6AB91F910F91FF90EF90089565B12F
:1010F00090E0AC0141705070440F551F9C01267068
:10110000307053E0220F331F5A95E1F7422B6D7C6C
:10111000462B45B92BB18870907034E0880F991F29
:101120003A95E1F72F77282B2BB95C9A81E090E074
:10113000FC016F9364E06A95F1F76F913197C9F7FD
:101140005C986F9364E06A95F1F76F910197C9F726
:10115000089580E197E2A0E0B0E08093550190937C
:101160005601A0935701B0935801529A209A549A6D
:101170008EE190E0B4D283E066D186E090E0AFD219
:1011800083E061D182E090E0AAD283E05CD182E08A
:1011900090E0A5D282E057D182E090E0A0D288E230
:1011A00041D088E03FD081E03DD086E03BD08CE06C
:1011B00039C080915901882321F481E0809359013D
:1011C000C8CF0895BF92CF92DF92EF92FF920F9314
:1011D0001F93082F162FF42EECDF3DDFB4B0C5B0FF
:1011E000DAB0EBB02898112311F05A9A01C05A983E
:1011F00084B1826384B9579A81E0F81621F0802F78
:1012000082958F7074DF802F8F7071DFDAB8EBB842
:10121000B4B8C5B81F910F91FF90EF90DF90CF90B9
:10122000BF90089560E042E0CDCFA4E0B0E0EBE1F4
:10123000F9E00C94D311182F062F80E8898380ECF5
:101240008A8384E98B8384ED8C83FE01E60FF11D94
:101250008181810FE7DF109354010093530124969D
:10126000E4E00C94EF11E1CF089581E0DBDF8091A1
:10127000510190915201892B19F160E070E208C090
:10128000E0915101F0915201E40FF51F70836F5FFF
:10129000462F50E080913B0190E0019720913C0166
:1012A00030E0FC01E29FC001E39F900DF29F900DA2
:1012B00011244817590724F3109254011092530136
:1012C0000895D3CF089561E042E07CCF6F927F9282
:1012D0008F929F92AF92BF92CF92DF92FF920F9325
:1012E000DF93CF93CDB7DEB72A970FB6F894DEBF62
:1012F0000FBECDBF5B016C010AE03E010894611C8A
:10130000711CFA2CC601B5012AE030E040E050E043
:10131000FFD7C901DA015C016D0101504301800E64
:10132000911C80E3F80EC601B5012AE030E040E0F0
:1013300050E09CD7F61AF401F082A114B104C10464
:10134000D104F9F607C0F601E00FF11D8081BBDF83
:101350000F5F04C06E010894C11CD11C0A3098F3C1
:101360002A960FB6F894DEBF0FBECDBFCF91DF91A6
:101370000F91FF90DF90CF90BF90AF909F908F9094
:101380007F906F900895EF92FF920F931F937B01D0
:101390008C0197FF0AC010950095F094E094E11C31
:1013A000F11C011D111D8DE28EDFC801B7018EDF1A
:1013B0001F910F91FF90EF900895E5CF0895CF937F
:1013C000DF93EC0102C07FDF2196FE018491882328
:1013D000D1F7DF91CF910895F2CF0895CF93DF93A6
:1013E000EC0102C021966FDF88818823D9F7DF9155
:1013F000CF910895F3CF089566CF0895EF92FF92AD
:101400000F931F93CF93DF937C01062F10E0F3E03F
:10141000000F111FFA95E1F7C0E0D0E09E01200F08
:10142000822F8064FFDEF701EC0FFD1FE4918E2F09
:101430004ADF2196C830D10589F7CDB7DEB7E6E09F
:10144000CCC7DCCF089560E041E0BCCE282F8830C7
:1014500068F481E090E002C0880F991F2A95E2F7B6
:10146000282FAAE2B0E0EBE2F0E029C08E3080F451
:1014700030E02850304081E090E002C0880F991F92
:101480002A95E2F7282FA4E2B0E0E5E2F0E017C0E9
:10149000853130F020E0A0E0B0E0E0E0F0E00FC007
:1014A00030E02E50304081E090E002C0880F991F5C
:1014B0002A95E2F7282FA7E2B0E0E8E2F0E06F3FDC
:1014C00019F48081822709C0662319F08081822B5C
:1014D00004C09081822F8095892380838C91822BF8
:1014E0008C930895E0EBF0E083EF8083808184BDEE
:1014F000E1EBF0E082E08083808185BDE4EBF0E009
:1015000010828081E3EBF0E08083808188BD88B524
:1015100087BD86E060E09ADF85E060E097DF8BE0E2
:1015200060E094DF83E060E091CF80915A018823EE
:1015300021F481E080935A01D5CF0895CF93DF93B2
:10154000EC01F3DFD7FD02C020E004C0D095C195C7
:10155000DF4F21E0CE01CF3FD10519F014F08FEF1E
:1015600090E0222319F018BC87BD02C088BD17BCCB
:10157000DF91CF910895CF93DF93EC01D6DFD7FDB4
:1015800002C020E004C0D095C195DF4F21E0CE011C
:10159000CF3FD10519F014F08FEF90E0222329F00E
:1015A0001092B4008093B30004C08093B4001092F2
:1015B000B300DF91CF9108950F931F938B01BEDF8E
:1015C000C801D9DF1F910F910895F6CF0895282FF4
:1015D00080915B01882391F481E080935B0184B169
:1015E0008D7C84B985B1826385B985E090E06F9385
:1015F00064E06A95F1F76F910197C9F783B180951F
:10160000822308951F93CF93DF93182F80915B015E
:10161000882391F481E080935B0184B18D7C84B94F
:1016200085B1826385B985E090E06F9364E06A9547
:10163000F1F76F910197C9F7C12FD0E083B190E026
:101640008C239D23892BD1F38AE090E048D083B18D
:1016500090E08C239D23892B89F383B18123DF9133
:10166000CF911F910895CECF08952F928F939F937E
:101670002FB68091690190916A010196809369016A
:1016800090936A0190E080916B01891F80936B01B8
:10169000909171019C5F90937101809170018051D4
:1016A0009742C0F0909371018093700180916C011A
:1016B00090916D01019680936C0190936D0190E083
:1016C00080916E01891F80936E0180916F01891F47
:1016D00080936F012FBE9F918F912F90189528EEC8
:1016E00033E009C0F9016F9364E06A95F1F76F91F7
:1016F0003197C9F701970097A9F70895A0E7B0E0DF
:101700008C918E7F8C93E0EBF0E08081836080830E
:10171000E1EBF0E08081807F808380818260808344
:10172000B89A8C9181608C9378940895809172011D
:10173000882321F481E080937201E0CF0895F6DFE1
:10174000E0E7F0E080818E7F808320916C01309112
:101750006D0140916E0150916F01808181608083A5
:10176000B901CA010895EBCF0895E0DFE0E7F0E0AA
:1017700080818E7F808310926C0110926D01109297
:101780006E0110926F0110927101109270018081B0
:10179000816080830895089583E791E030C49C01BF
:1017A000462F83E791E0B90120E0A1C3682F83E7CA
:1017B00091E03CC50F93DF93CF9300D000D00F9200
:1017C000CDB7DEB79C01962FDE011196EDE3F1E077
:1017D00085E001900D928150E1F7BE016F5F7F4F70
:1017E000992329F083E791E045E00FEF04C083E7F8
:1017F00091E045E003E174D083E791E059D0B5DF93
:101800000F900F900F900F900F90CF91DF910F914D
:10181000089560E0CFCFFC01118210821382128202
:101820001582148217821682613118F080E1808758
:1018300001C06087208B483060F481E090E002C0F6
:10184000880F991F4A95E2F74AE250E02BE230E018
:1018500029C04E3080F4242F30E02850304081E001
:1018600090E002C0880F991F2A95E2F744E250E009
:1018700025E230E017C0453130F080E040E050E034
:1018800020E030E00FC0242F30E02E50304081E0C7
:1018900090E002C0880F991F2A95E2F747E250E0D6
:1018A00028E230E08187338722875587448708956F
:1018B000DC011C96ED91FC911D97309781F08081A1
:1018C00019969C911997892B80831A96ED91FC911A
:1018D0001B97908119968C91809589238083089518
:1018E000A0E0B0E0E5E7FCE058C5EC015B01642F47
:1018F0007901402F20E08FDFCE018F5B9F4FFC01ED
:101900001082DE01AE5BBF4F1C92FE01ED5BFF4F0C
:101910001082FF86EE8640E061E070E06F017D019D
:101920008C014EC0F501E40FF11D8081883050F428
:101930009B0102C0220F331F8A95E2F7922F29E202
:1019400030E01FC08E3060F490E00897FB0102C0C9
:10195000EE0FFF1F8A95E2F79E2F23E230E011C0C1
:10196000853120F090E020E030E00BC090E00E9751
:101970009B0102C0220F331F8A95E2F7922F26E2C5
:1019800030E0E42FF0E0DE01AE0FBF1F51969C93D4
:10199000EE0FFF1FEC0FFD1F32A321A323323105F1
:1019A00011F4F80109C02632310511F4F70104C021
:1019B0002932310521F4F6018081982B90834F5F05
:1019C0008885481708F4AECFCDB7DEB7EAE001C589
:1019D000A0E0B0E0EDEEFCE0DEC4EC015B01CF5B2B
:1019E000DF4F4991A9918880C354D04090E009C04D
:1019F000E92FF0E0EE0FFF1FEA0DFB1D11821082B0
:101A00009F5F88859817A0F384B1CF5BDF4F399132
:101A1000832B84B987B12991822B87B98AB19881A8
:101A2000C354D040892B8AB985B1832B85B988B13D
:101A3000822B88B98BB1892B8BB9EAE0F0E06F93E8
:101A400064E06A95F1F76F913197C9F784B13095E9
:101A5000832384B987B12095822387B98AB1909571
:101A600089238AB985B1382335B988B1282328B9A3
:101A70008BB198239BB99090B000C090B100809139
:101A8000B00083608093B00082E08093B100D0907A
:101A9000B20060E070E03AC05091B2005D19650F8D
:101AA000711DE3B0E41609F04FC0F6B0FA1609F064
:101AB0004BC089B1881509F047C025C0A42FB0E0FC
:101AC0009D01220F331F8501020F131FF801808132
:101AD0009181892BA1F42C0F3D1FF90181A192A1C5
:101AE000FC01208130E0AC0FBD1F51968C9190E03D
:101AF00028233923232B19F4F801718360834F5F66
:101B000088854817D8F2D50E4E2DAF2D8E859F852E
:101B10006817790708F29092B000C092B10020E0F7
:101B20000FC0E22FF0E0EE0FFF1FEA0DFB1D8081DA
:101B30009181892B21F48E859F85918380832F5FEE
:101B40008885281770F305C0E3B0F6B089B040E08F
:101B5000D7CFCDB7DEB7ECE03AC4A0E0B0E0E2EB1F
:101B6000FDE01DC4EC018B01D0907C00E0907A0078
:101B7000C7B0F8B080917A0086FDFCCF90E009C034
:101B8000E92FF0E0EE0FFF1FE00FF11F118210822E
:101B90009F5F88859817A0F397B18AA180959823B5
:101BA00097B998B1892388B987E880937A0050E083
:101BB00025C0FE01E40FF11D8189806480937C00C3
:101BC00080917A00806480937A0080917A0086FD0B
:101BD000FCCFE42FF0E0EE0FFF1FE00FF11F20918C
:101BE00078003091790080819181820F931F9183D9
:101BF00080834F5F88854817E0F25F5F89A158179F
:101C000010F040E016C040E0F5CFE42FF0E0EE0F1A
:101C1000FF1FE00FF11F69A1862F90E09595879532
:101C200020813181820F931F70E04BD371836083D9
:101C30004F5F8885481748F3D0927C00E0927A0085
:101C4000F8B8C7B8CDB7DEB7E8E0C5C3A0E2B0E0EA
:101C5000EBE2FEE0A3C38C017B01D42E842F8150E4
:101C60008230B0F4D8011C96ED91FC911D9730970D
:101C700079F0808119969C911997892B80831A9607
:101C8000ED91FC911B97808119969C91892B808303
:101C9000F8018089882339F5C02EB12EC801B7011B
:101CA00097DED8011C96ED91FC911D97309781F03D
:101CB000808119969C911997892B80831A96ED91B2
:101CC000FC911B97908119968C9180958923808334
:101CD000B2E0DB1609F050C08C2D9B2DBE016F5F6A
:101CE0007F4F76DE25C0C02EB12EC801B70135DF8B
:101CF000D8011C96ED91FC911D97309781F0808161
:101D000019969C911997892B80831A96ED91FC91D5
:101D10001B97908119968C91809589238083B2E0DE
:101D2000DB1651F58C2D9B2DBE016F5F7F4F15DFAC
:101D300040E0BE016F5F7F4F1AC0E42FF0E0EE0F6E
:101D4000FF1F6701CE0EDF1EE60FF71FD8011E969C
:101D50002D913C911F9780819181281B390BF601B1
:101D600080819181820F931F918380834F5FD8017F
:101D700018968C91481708F3A096E9E02BC3A0E0D1
:101D8000B0E0E4ECFEE008C3EC01162F072F942E20
:101D900022E0421711F0442351F48C819D81892B5C
:101DA00009F4A1C08E819F81892B09F49CC0892DE3
:101DB0008150823050F488819981892B09F493C035
:101DC0008A819B81892B09F48EC0CE01612F702FEF
:101DD000492D3CDF812F902F9C015901CC24DD241B
:101DE00000E010E07AC081E0981669F4EA81FB8196
:101DF000E00FF11F20813181E881F981E00FF11FAF
:101E0000408151813DC0AC81BD81992059F4EE8162
:101E1000FF81E00FF11F20813181A00FB11F4D9193
:101E20005C912EC0A00FB11F8D919C91E881F9812A
:101E3000E00FF11F20813181EE85FF858217930726
:101E400010F4AF0105C0A9014E0F5F1F481B590BCD
:101E5000EE81FF81E00FF11F60817181EA81FB81DA
:101E6000E00FF11F80819181EE85FF85681779076A
:101E700010F49F0105C09C012E0F3F1F261B370B3E
:101E80007901E41AF50AF1F0F5016081718180E0D1
:101E900090E09A0140E050E0621B730B840B950BBD
:101EA00028EE33E040E050E0E1D1970140E050E01F
:101EB00051D2C901F3E0293E3F0714F088EE93E0C8
:101EC00097FF02C080E090E0F501819391935F015C
:101ED0000894C11CD11C0E5F1F4F888590E0C81666
:101EE000D9060CF480CFCDB7DEB7EBE071C2A4E029
:101EF000B0E0ECE7FFE049C28C01F62EE72E2A8322
:101F00003EDFD8011896BC91B9832F2D3E2DC90113
:101F10008C01552444246624772443011C821B82AF
:101F2000AA24BB246501B8EE2B2EB3E03B2E31C0B2
:101F3000F801E080F180FA81FF2321F0C1018E19C0
:101F40009F097C0199ECE916F10414F044244394B0
:101F5000A3E3EA16F10494F0B701882777FD809592
:101F6000982FA601950182D1660E771E881E991EB4
:101F7000EB81FC81EE0DFF1DFC83EB83539488EE17
:101F800093E0A0E0B0E0A80EB91ECA1EDB1E0E5FF3
:101F90001F4F9981591660F2442009F5492F50E0EE
:101FA0004150504084EF91E0489F9001499F300D8F
:101FB000589F300D11248091B7019091B80182177C
:101FC00093071CF420E030E016C088EE93E0489FB1
:101FD0009001499F300D589F300D11240CC0AB81EA
:101FE000BC819D0140E050E0C401B30191D1209338
:101FF000B7013093B801C9012496E2E1E2C1CF9361
:10200000DF93EC018A819B81009709F0A8D28E8131
:102010009F81009709F0A3D288819981009709F0E8
:102020009ED28C819D81009709F099D2DF91CF914A
:102030000895A3E6B0E0EEE1F0E1A7C17C015B0109
:102040006A01A2962FAFA297DA018D919C91892BFC
:1020500009F5F701808590E0880F991FD3D1D6014B
:102060008D939C93009709F4DDC020E030E00CC014
:10207000C901880F991FD601ED91FC91E80FF91F56
:10208000118210822F5F3F4FF701808590E0281763
:10209000390774F3D5018D919C91892B89F000E06B
:1020A00010E03E010894611C711C41E4242E312C87
:1020B0002C0E3D1E31E2432E512C4C0E5D1E27C0CE
:1020C000F701808590E0880F991F9CD1D5018D93F1
:1020D0009C93009709F4A6C020E030E011C0C9012C
:1020E000880F991FD501ED91FC91E80FF91FD701D9
:1020F0001E968D919C911F97918380832F5F3F4FF8
:10210000F701808590E0281739074CF3C8CFC70145
:10211000B301A2964FADA29799DDD70118968C9185
:10212000882E9924A101F301A4965FAE4EAEA49728
:1021300060E070E034C00115110559F0A496AEAD11
:10214000BFADA4972D913C918081918128173907CB
:1021500058F480819181A496AEADBFADA4978D93C4
:102160009C930115110541F0DA012D913C9180817C
:1021700091818217930728F480819181DA018D93F0
:102180009C936F5F7F4F4E5F5F4F3296A4968EADEC
:102190009FADA4970296A4969FAF8EAFA4976815A3
:1021A00079054CF20F5F1F4F0A30110509F0AFCFD0
:1021B00040E050E020E030E08E010F5B1F4FBE0199
:1021C0006F5D7F4F28C0F801E20FF31F8080918080
:1021D000F601A081B181A20FB31F8D919C9111973F
:1021E0008815990510F48D929C92FB01E20FF31F64
:1021F00080809180F501A081B181A20FB31F8D91E4
:102200009C9111978816990610F48D929C924F5FBD
:102210005F4F2E5F3F4FD70118968C9190E0481783
:1022200059078CF2CD59DF4FE2E1CBC01F93CF931A
:10223000DF93EC01162F862F8150823038F4AE01E7
:102240004E5F5F4FCE01BE0121E0F3DE123011F090
:10225000112341F4AE014A5F5F4FCE012496BE01C7
:1022600020E0E7DEDF91CF911F910895629FD001BA
:10227000739FF001829FE00DF11D649FE00DF11D41
:10228000929FF00D839FF00D749FF00D659FF00DF0
:102290009927729FB00DE11DF91F639FB00DE11DDD
:1022A000F91FBD01CF0111240895991B79E004C0E5
:1022B000991F961708F0961B881F7A95C9F7809585
:1022C0000895AA1BBB1B51E107C0AA1FBB1FA6177D
:1022D000B70710F0A61BB70B881F991F5A95A9F7CF
:1022E00080959095BC01CD01089597FB092E072696
:1022F0000AD077FD04D0E5DF06D000201AF47095EF
:1023000061957F4F0895F6F7909581959F4F0895B9
:10231000A1E21A2EAA1BBB1BFD010DC0AA1FBB1FE9
:10232000EE1FFF1FA217B307E407F50720F0A21B5B
:10233000B30BE40BF50B661F771F881F991F1A94C8
:1023400069F760957095809590959B01AC01BD01F2
:10235000CF01089597FB092E05260ED057FD04D016
:10236000D7DF0AD0001C38F4509540953095219560
:102370003F4F4F4F5F4F0895F6F7909580957095BA
:1023800061957F4F8F4F9F4F08952F923F924F92AD
:102390005F926F927F928F929F92AF92BF92CF92F5
:1023A000DF92EF92FF920F931F93CF93DF93CDB7FE
:1023B000DEB7CA1BDB0B0FB6F894DEBF0FBECDBF76
:1023C00009942A88398848885F846E847D848C8447
:1023D0009B84AA84B984C884DF80EE80FD800C8150
:1023E0001B81AA81B981CE0FD11D0FB6F894DEBF33
:1023F0000FBECDBFED010895EE0FFF1F0590F491C4
:10240000E02D0994CF93DF93BC018230910510F445
:1024100062E070E0A091BD01B091BE01ED01E0E08D
:10242000F0E040E050E021C088819981861797074D
:1024300069F48A819B81309719F09383828304C069
:102440009093BE018093BD01FE0134C068177907E7
:1024500038F44115510519F08417950708F4AC01BB
:10246000FE018A819B819C01E9012097E9F64115D3
:102470005105A9F1CA01861B970B049708F4BA010C
:10248000E0E0F0E02AC08D919C91119784179507A8
:10249000F9F46417750781F412968D919C91139746
:1024A000309719F09383828304C09093BE01809388
:1024B000BD01FD0132964FC0CA01861B970BFD017D
:1024C000E80FF91F6193719302978D939C9343C01A
:1024D000FD01828193819C01D9011097A1F6809121
:1024E000BB019091BC01892B41F4809144019091F2
:1024F00045019093BC018093BB01409146015091EE
:1025000047014115510541F44DB75EB78091420135
:1025100090914301481B590B2091BB013091BC01A4
:1025200024173507B0F4CA01821B930B861797074F
:1025300080F0AB014E5F5F4F8417950750F0420F5C
:10254000531F5093BC014093BB01F90161937193F8
:1025500002C0E0E0F0E0CF01DF91CF910895CF938A
:10256000DF93009709F450C0EC0122971B821A8276
:10257000A091BD01B091BE01109709F140E050E07B
:10258000AC17BD0708F1BB83AA83FE0121913191ED
:10259000E20FF31FAE17BF0779F48D919C9111974D
:1025A000280F391F2E5F3F4F3983288312968D9154
:1025B0009C9113979B838A834115510571F4D093A5
:1025C000BE01C093BD0120C012968D919C911397BE
:1025D000AD01009711F0DC01D3CFFA01D383C283A0
:1025E00021913191E20FF31FCE17DF0769F4888143
:1025F0009981280F391F2E5F3F4FFA0131832083C5
:102600008A819B8193838283DF91CF91089510E02B
:10261000C6ECD0E003C0FE01F1DE2296C83CD10733
:06262000D1F7F894FFCF92
:102626006D56005072657373204200476F2100207B
:102636000000010203040506FF3E3E6133320053EB
:102646006F6C766564210050726573732042008852
:102656001301040400D007F4010F0002080E0F1046
:0826660011122000BF01000069
:00000001FF
