:100000005EC0000083C0000081C000007FC000000F
:100010007DC000007BC0000079C0000077C00000F8
:1000200075C000000C94780971C000006FC000001A
:100030006DC00000F2C5000069C0000067C000008C
:1000400065C0000063C0000061C000005FC0000028
:100050005DC000005BC0000059C0000057C0000038
:1000600055C0000053C000007B0381038403870355
:100070008A038D0390039303960399039C039F03C4
:1000800020506F6C6F6C750033F720526F626F7485
:1000900000F7204C696E6520F7004D757369636940
:1000A000616E003E6733323E3E633332004C313680
:1000B00020636465677265673400F809F9091124E3
:1000C0001FBECFEFD8E0DEBFCDBF11E0A0E0B1E0B2
:1000D000EAE5F2E202C005900D92AC33B107D9F720
:1000E00011E0ACE3B1E001C01D92A33BB107E1F721
:1000F00010E0CCEBD0E004C02297FE010E94181063
:10010000CA3BD107C9F732D10C94211179CF823083
:10011000910548F4FC01EE0FFF1FEC5EFE4F0190CD
:10012000F081E02D099508951F9382E30E947609DE
:10013000182F0E943E09812F1F910895CF93DF93BE
:10014000EC01EFD680E060E0BED69E012F5C822FEE
:1001500083D781E060E0B7D68EE27ED782E060E0B0
:10016000B2D6FE01EE0FFF1FE15EFE4F808191814E
:1001700071D71C161D062CF480E061E0A4D68DE238
:100180006BD783E061E09FD680E091E063D7CD2B11
:1001900029F487E061E097D68BE25ED7DF91CF91BB
:1001A0000895CF93DF9307C0C1E0D0E0CE01C6DF52
:1001B000BBDF81FF03C0C0E0D0E0F8CF85FF03C004
:1001C000209791F3F3CF84FFF1CFCE01DF91CF9150
:1001D0000895A7D683E091E03DD780ED97E00E9497
:1001E000B20980E090E00895AAE0B0E0EAEFF0E024
:1001F0000C94EF0FCE01019661E00E94FC09898109
:100200009A81893C910518F420E030E00AC020E092
:1002100089859A85893C910508F421E081E02827A9
:1002200030E0C9012A96E2E00C940B10AAE0B0E09D
:10023000ECE1F1E00C94EB0F8C0182E390E062E3DF
:1002400070E0CED77E010894E11CF11CC70161E08B
:100250000E94FC098D819E818536910530F080E4F5
:1002600064E670E04FE090D201C039D184E690E0BE
:100270000E94B209C801B8DF892B41F380E090E009
:1002800060E070E0ADD72BD181E090E02A96E6E007
:100290000C940710EF92FF920F931F93CF93DF936D
:1002A00080ED97E00E94360A80E890E0C5D680E0B5
:1002B00061E009D688E890E0BFD683EA90E0ABD44D
:1002C00088EE93E00E94B2092CD681E990E0B4D682
:1002D00080E061E0F8D58AE990E0AED680ED97E065
:1002E00015C0FBD07C011DD60027F7FC0095102F10
:1002F000C801B70192D689E091E0ACD680E061E018
:10030000E2D58CE091E0A6D684E690E00E94B209A6
:1003100080E168D7882329F380E1B0D788EE93E0A5
:100320000E94B209CCEEDFEFC832D10528F088E296
:1003300090E068ED7FEF04C088ED9FEF68E270E029
:100340004FD781E00E94030A84E190E00E94B20945
:100350002196CC33D10541F780E090E060E070E079
:100360003FD7CDB7DEB7E6E00C9407100F931F938D
:1003700091DF17DF8C0188EE93E0F4D7C801C7DE68
:10038000F8CFEF92FF920F931F93982F803278F45B
:1003900087E880937A0080917C0080648076892B46
:1003A00080937C0080917A00806480937A008091B1
:1003B0007A0086FDFCCFFB01EE24FF2487018091AB
:1003C0007A00806480937A0080917A0086FDFCCF69
:1003D00080917C0085FF04C08091790090E004C08A
:1003E0008091780090917900A0E0B0E0E80EF91ECD
:1003F0000A1F1B1F319719F7CB019695879560341B
:10040000710538F48E0D9F1D70E00E948E0F9B01C8
:100410000DC0A0E0B0E0E80EF91E0A1F1B1F9B01F3
:1004200040E050E0C801B7010E94A20FC9011F912E
:100430000F91FF90EF900895A0E0B0E0209123018C
:100440003091240140E050E0BC01CD010E94630FD7
:100450009B01AC0180917C0085FF0BC0B901CA01F2
:1004600061587F4F8F4F9F4F2FEF30E040E050E0BB
:100470000AC0B901CA0161507E4F8F4F9F4F2FEFC5
:1004800033E040E050E00E94A20FC901089579DFF7
:10049000D3CF1F9310917C0080917C008F7D80933F
:1004A0007C0086E06AE070E0F2DFAC0115FD04C07C
:1004B00080917C008F7D03C080917C00806280935E
:1004C0007C009A01220F331F240F351F2F5F3F4FEF
:1004D00036952795C9011F910895DBCF0895109295
:1004E0006F00E1E8F0E08081887F8160808380E1B7
:1004F00097E2909389008093880010928B0010926D
:100500008A0081E08093250110923E0110923D0106
:100510000895A0E0B0E0EFE8F2E00C94E70FFC01F2
:100520005B01C42E80913C018823C9F481E0809353
:100530003C0110926F0083E28093800081E1809300
:1005400081001092820080E197E29093890080936D
:10055000880010928B0010928A00229A7894109250
:100560002501F7FD03C0DD24D39403C0FF772AE003
:10057000D22E80918100082F10E0087F107088EC47
:10058000D89EC00111248E179F07C0F4EF0187E2A7
:10059000E131F80710F0C0E1D7E2BE01769567952A
:1005A00080E090E06058794687469F4F9E0140E08A
:1005B00050E00E94A20F7901016024C088E2D89E19
:1005C000802D1124C82FD0E0CE17DF0708F4EF01EB
:1005D000BE01769567959E0140E050E08AE0D8160E
:1005E00039F480E090E0605E734481449F4F06C020
:1005F00080E090E060537D4E8C4E9F4F0E94A20F92
:10060000790102608AE0D81639F4CE0105966AE0D5
:1006100070E00E948E0FEB0183E0C83ED80711F412
:10062000B5010FC0BE0180E090E0950140E050E0D0
:100630000E94630F28EE33E040E050E00E94C40FB8
:10064000B90110926F0000938100F0928900E0924E
:100650008800E0918800F0918900AC2DA03108F06D
:10066000AFE080E190E08A1B910902C0F695E79522
:100670008A95E2F7F0938B00E0938A00709344012F
:100680006093430186B38FEF86BB81E080936F0058
:10069000CDB7DEB7EAE00C940310CF93DF93EB0104
:1006A0008F3F11F0442329F488EE93E0BE0140E02F
:1006B00067C0813110F420E005C0282F205120367A
:1006C00008F02FE5822F6CE00E94820F382F682FF0
:1006D00070E084EF9FEF689FF001699FF00D789FB5
:1006E000F00D1124E20FF11DEC30F10538F4EC5C53
:1006F000FF4F0C9416108CE991E023C080E090E04D
:1007000020C085EB91E01DC08FEC91E01AC08AEE0D
:1007100091E017C087E092E014C086E292E011C039
:1007200087E492E00EC089E692E00BC08EE892E08A
:1007300008C085EB92E005C08EED92E002C08AE031
:1007400093E0373071F002C0880F991F6A95E2F785
:10075000323020F005966AE070E00BC0805090487F
:100760000BC036E0880F991F3A95E1F7029665E0D5
:1007700070E00E948E0FCB01403108F04FE0BE01C7
:10078000C8DEDF91CF91089588CF0895309141015F
:10079000E0913D01F0913E01332311F0249101C01D
:1007A0002081822F81548A3108F4205E203259F44E
:1007B00080913D0190913E01019690933E0180937E
:1007C0003D01019729F7822F0895CF93DF93DEDF54
:1007D000282FC0E0D0E01CC0CE0153E0880F991F45
:1007E0005A95E1F7CC0FDD1FC80FD91F822F99272B
:1007F00087FD9095C80FD91FE09780913D0190919A
:100800003E01019690933E0180933D01BFDF282F6A
:10081000822F80538A3000F3CE01DF91CF9108956B
:10082000A0E0B0E0E6E1F4E00C94E50F8090260152
:10083000B0903F01BB2021F060914001662399F404
:10084000A090400100912B0110912C01E090270114
:10085000F0902801C0912901D0912A01C0902D016A
:10086000D0902E0103C18FEF70E040E016DF1092B0
:100870004001C0C194E0892EBB2404EF11E084E064
:10088000E82EF12CC0EDD7E0B4E09B2EAFE0CA2EED
:10089000D12C7CDF282F80913D0190913E01019663
:1008A00090933E0180933D01263609F498C0273687
:1008B000CCF42236A1F1233674F42E3361F12F33B8
:1008C00034F42132B9F22C3309F006C126C02136A6
:1008D00009F002C11CC1243609F451C025360CF0C0
:1008E00066C035C02F3609F4BFC0203754F42C360B
:1008F00009F4A5C02D3609F4A5C0273609F0ECC0CF
:1009000086C0243709F4CEC0263709F4E2C0223766
:1009100009F0E2C0ADC08394BCCF8A94BACFA09254
:100920004001B0923F0110932C0100932B01F092F3
:100930002801E0922701D0932A01C09329019092C7
:100940002601D0922E01C0922D012BE0F7C0A0927B
:100950004001B0923F0110932C0100932B01F092C3
:100960002801E0922701D0932A01C0932901909297
:100970002601D0922E01C0922D0120E0DFC0A0926E
:100980004001B0923F0110932C0100932B01F09293
:100990002801E0922701D0932A01C0932901909267
:1009A0002601D0922E01C0922D0122E0C7C0A09254
:1009B0004001B0923F0110932C0100932B01F09263
:1009C0002801E0922701D0932A01C0932901909237
:1009D0002601D0922E01C0922D0124E0AFC0A0923A
:1009E0004001B0923F0110932C0100932B01F09233
:1009F0002801E0922701D0932A01C0932901909207
:100A00002601D0922E01C0922D0125E097C0A09220
:100A10004001B0923F0110932C0100932B01F09202
:100A20002801E0922701D0932A01C09329019092D6
:100A30002601D0922E01C0922D0127E07FC0C5DE95
:100A40007C0141C0A3DE8C3611F4BB2403C0AA2470
:100A5000BB24B39480913D0190913E010196909307
:100A60003E0180933D0115CFB0DE882E982C11CF2A
:100A7000A0924001B0923F0110932C0100932B01F2
:100A8000F0922801E0922701D0932A01C093290116
:100A900090922601D0922E01C0922D0120E0FF24D9
:100AA000F3944DC092DEBC0180EC9DE50E948E0F58
:100AB000CB01EB01F3E0CC0FDD1FFA95E1F7880FD6
:100AC000991FC80FD91FCE01B7010E948E0F8B014D
:100AD000E0CE7BDE6C01DDCEA0924001B0923F0102
:100AE00010932C0100932B01F0922801E092270132
:100AF000D0932A01C093290190922601D0922E0111
:100B0000C0922D0110923E0110923D0173C0A0923F
:100B10004001B0923F0110932C0100932B01F09201
:100B20002801E0922701D0932A01C09329019092D5
:100B30002601D0922E01C0922D0129E0FF248CE0E5
:100B4000889EC0011124E22EE80E0AC080913D016A
:100B500090913E01019690933E0180933D01E39474
:100B600015DE8B3299F3833289F30BC080913D01FE
:100B700090913E01019690933E0180933D01EA944D
:100B800005DE8D3299F3C0912B01D0912C01815358
:100B9000883050F40091290110912A0116DEBC0121
:100BA000C8010E948E0FEB018E010BC080913D01A8
:100BB00090913E01019690933E0180933D01C00FBC
:100BC000D11F16950795E2DD8E3281F380913F01AA
:100BD000882339F0CE019695879580934001C81BF4
:100BE000D109FF2011F0EE24EA948E2DBE01409130
:100BF0002D0153DDCDB7DEB7ECE00C94011010925F
:100C00006F0090933E0180933D0181E0809341010C
:100C10001092400105CEF3CF08951F920F920FB6A8
:100C20000F9211242F933F934F935F936F937F9372
:100C30008F939F93AF93BF93EF93FF938091430163
:100C40009091440101979093440180934301019650
:100C500009F510926F00789480918100887F8160FF
:100C60008093810080E197E29093890080938800CF
:100C700010928B0010928A0081E080932501809170
:100C80003D0190913E01892B29F0809142018823FA
:100C900009F4C6DDFF91EF91BF91AF919F918F91C4
:100CA0007F916F915F914F913F912F910F900FBE68
:100CB0000F901F901895EF92FF920F931F936AB1B8
:100CC00057985A98289AE0904901F0904A0100916B
:100CD0004B0110914C0120E030E041E050E0CA01AE
:100CE0006F9364E06A95F1F76F910197C9F75C9A89
:100CF000CA016F9364E06A95F1F76F910197C9F7A4
:100D000089B15C98FA016F9364E06A95F1F76F918D
:100D10003197C9F75C9AFA016F9364E06A95F1F72D
:100D20006F913197C9F75C9887FF0BC02C5F3F4FDD
:100D3000C901A0E0B0E08E159F05A007B10708F437
:100D4000CECF6AB91F910F91FF90EF90089565B1D2
:100D500090E0AC0141705070440F551F9C0126700B
:100D6000307053E0220F331F5A95E1F7422B6D7C10
:100D7000462B45B92BB18870907034E0880F991FCD
:100D80003A95E1F72F77282B2BB95C9A81E090E018
:100D9000FC016F9364E06A95F1F76F913197C9F7A1
:100DA0005C986F9364E06A95F1F76F910197C9F7CA
:100DB000089580E197E2A0E0B0E08093490190932C
:100DC0004A01A0934B01B0934C01529A209A549A35
:100DD0008EE190E0C7D283E041D186E090E0C2D2BC
:100DE00083E03CD182E090E0BDD283E037D182E065
:100DF00090E0B8D282E032D182E090E0B3D288E2D3
:100E000041D088E03FD081E03DD086E03BD08CE00F
:100E100039C080914D01882321F481E080934D01F8
:100E2000C8CF0895BF92CF92DF92EF92FF920F93B7
:100E30001F93082F162FF42EECDF3DDFB4B0C5B0A2
:100E4000DAB0EBB02898112311F05A9A01C05A98E1
:100E500084B1826384B9579A81E0F81621F0802F1B
:100E600082958F7074DF802F8F7071DFDAB8EBB8E6
:100E7000B4B8C5B81F910F91FF90EF90DF90CF905D
:100E8000BF90089560E042E0CDCFA4E0B0E0EBE495
:100E9000F7E00C94ED0F182F062F80E8898380EC83
:100EA0008A8384E98B8384ED8C83FE01E60FF11D38
:100EB0008181810FE7DF1093480100934701249659
:100EC000E4E00C940910E1CF089581E0DBDF80912C
:100ED000450190914601892B19F160E070E208C04C
:100EE000E0914501F0914601E40FF51F70836F5FBB
:100EF000462F50E080912F0190E001972091300122
:100F000030E0FC01E29FC001E39F900DF29F900D45
:100F100011244817590724F31092480110924701F1
:100F20000895D3CF089561E042E07CCF6F927F9225
:100F30008F929F92AF92BF92CF92DF92FF920F93C8
:100F4000DF93CF93CDB7DEB72A970FB6F894DEBF05
:100F50000FBECDBF5B016C010AE03E010894611C2D
:100F6000711CFA2CC601B5012AE030E040E050E0E7
:100F7000E9D7C901DA015C016D0101504301800E1E
:100F8000911C80E3F80EC601B5012AE030E040E094
:100F900050E099D7F61AF401F082A114B104C1040B
:100FA000D104F9F607C0F601E00FF11D8081BBDF27
:100FB0000F5F04C06E010894C11CD11C0A3098F365
:100FC0002A960FB6F894DEBF0FBECDBFCF91DF914A
:100FD0000F91FF90DF90CF90BF90AF909F908F9038
:100FE0007F906F900895EF92FF920F931F937B0174
:100FF0008C0197FF0AC010950095F094E094E11CD5
:10100000F11C011D111D8DE28EDFC801B7018EDFBD
:101010001F910F91FF90EF900895E5CF0895CF9322
:10102000DF93EC0102C07FDF2196FE0184918823CB
:10103000D1F7DF91CF910895F2CF0895CF93DF9349
:10104000EC0102C021966FDF88818823D9F7DF91F8
:10105000CF910895F3CF089566CF089560E041E001
:10106000E1CE282F883068F481E090E002C0880F3C
:10107000991F2A95E2F7282FAAE2B0E0EBE2F0E010
:1010800029C08E3080F430E02850304081E090E07C
:1010900002C0880F991F2A95E2F7282FA4E2B0E03A
:1010A000E5E2F0E017C0853130F020E0A0E0B0E0EC
:1010B000E0E0F0E00FC030E02E50304081E090E002
:1010C00002C0880F991F2A95E2F7282FA7E2B0E007
:1010D000E8E2F0E06F3F19F48081822709C06623BF
:1010E00019F08081822B04C09081822F8095892302
:1010F00080838C91822B8C930895E0EBF0E083EF5A
:101100008083808184BDE1EBF0E082E08083808198
:1011100085BDE4EBF0E010828081E3EBF0E08083BA
:10112000808188BD88B587BD86E060E09ADF85E074
:1011300060E097DF8BE060E094DF83E060E091CFD8
:1011400080914E01882321F481E080934E01D5CF18
:101150000895CF93DF93EC01F3DFD7FD02C020E0C9
:1011600004C0D095C195DF4F21E0CE01CF3FD1051E
:1011700019F014F08FEF90E0222319F018BC87BD0E
:1011800002C088BD17BCDF91CF910895CF93DF9344
:10119000EC01D6DFD7FD02C020E004C0D095C19598
:1011A000DF4F21E0CE01CF3FD10519F014F08FEFD2
:1011B00090E0222329F01092B4008093B30004C081
:1011C0008093B4001092B300DF91CF9108950F93F4
:1011D0001F938B01BEDFC801D9DF1F910F910895C6
:1011E000F6CF0895282F80914F01882391F481E054
:1011F00080934F0184B18D7C84B985B1826385B9B8
:1012000085E090E06F9364E06A95F1F76F91019744
:10121000C9F783B18095822308951F93CF93DF93FD
:10122000182F80914F01882391F481E080934F0122
:1012300084B18D7C84B985B1826385B985E090E005
:101240006F9364E06A95F1F76F910197C9F7C12F29
:10125000D0E083B190E08C239D23892BD1F38AE0E9
:1012600090E080D083B190E08C239D23892B89F37B
:1012700083B18123DF91CF911F910895CECF08953F
:101280001F93CF93DF93182F80914F01882391F400
:1012900081E080934F0184B18D7C84B985B18263F4
:1012A00085B985E090E06F9364E06A95F1F76F91FE
:1012B0000197C9F7C12FD0E083B190E08095909558
:1012C0008C239D23892BC1F38AE090E04BD083B11E
:1012D00090E0809590958C239D23892B69F383B1B1
:1012E00080958123DF91CF911F910895C9CF0895F3
:1012F0002F928F939F932FB680915D0190915E0105
:10130000019680935D0190935E0190E080915F0172
:10131000891F80935F01909165019C5F90936501A7
:101320008091640180519742C0F090936501809351
:101330006401809160019091610101968093600148
:101340009093610190E080916201891F8093620116
:1013500080916301891F809363012FBE9F918F91BC
:101360002F90189528EE33E009C0F9016F9364E0DF
:101370006A95F1F76F913197C9F701970097A9F72F
:101380000895A0E7B0E08C918E7F8C93E0EBF0E0C5
:10139000808183608083E1EBF0E08081807F8083C7
:1013A000808182608083B89A8C9181608C937894DC
:1013B000089580916601882321F481E0809366017D
:1013C000E0CF0895F6DFE0E7F0E080818E7F808354
:1013D00010926001109261011092620110926301FB
:1013E000109265011092640180818160808308956C
:1013F000089587E691E030C49C01462F87E691E08E
:10140000B90120E0A1C3682F87E691E03CC50F93A6
:10141000DF93CF9300D000D00F92CDB7DEB79C0101
:10142000962FDE011196E1E3F1E085E001900D9247
:101430008150E1F7BE016F5F7F4F992329F087E666
:1014400091E045E00FEF04C087E691E045E003E15D
:1014500074D087E691E059D0B5DF0F900F900F90D0
:101460000F900F90CF91DF910F91089560E0CFCF53
:10147000FC0111821082138212821582148217825B
:101480001682613118F080E1808701C06087208B6F
:10149000483060F481E090E002C0880F991F4A95BF
:1014A000E2F74AE250E02BE230E029C04E3080F40F
:1014B000242F30E02850304081E090E002C0880FB7
:1014C000991F2A95E2F744E250E025E230E017C088
:1014D000453130F080E040E050E020E030E00FC0E7
:1014E000242F30E02E50304081E090E002C0880F81
:1014F000991F2A95E2F747E250E028E230E0818721
:1015000033872287558744870895DC011C96ED9127
:10151000FC911D97309781F0808119969C911997C5
:10152000892B80831A96ED91FC911B9790811996D7
:101530008C918095892380830895A0E0B0E0E2EA51
:10154000FAE045C5EC015B01642F7901402F20E0F2
:101550008FDFCE018F5B9F4FFC011082DE01AE5BFF
:10156000BF4F1C92FE01ED5BFF4F1082FF86EE869F
:1015700040E061E070E06F017D018C014EC0F5013B
:10158000E40FF11D8081883050F49B0102C0220FCE
:10159000331F8A95E2F7922F29E230E01FC08E3088
:1015A00060F490E00897FB0102C0EE0FFF1F8A95E0
:1015B000E2F79E2F23E230E011C0853120F090E069
:1015C00020E030E00BC090E00E979B0102C0220F9C
:1015D000331F8A95E2F7922F26E230E0E42FF0E005
:1015E000DE01AE0FBF1F51969C93EE0FFF1FEC0F55
:1015F000FD1F32A321A32332310511F4F80109C0E4
:101600002632310511F4F70104C02932310521F4E5
:10161000F6018081982B90834F5F8885481708F4E6
:10162000AECFCDB7DEB7EAE0EEC4A0E0B0E0EAE1CD
:10163000FBE0CBC4EC015B01CF5BDF4F4991A9918B
:101640008880C354D04090E009C0E92FF0E0EE0F4D
:10165000FF1FEA0DFB1D118210829F5F888598177E
:10166000A0F384B1CF5BDF4F3991832B84B987B16D
:101670002991822B87B98AB19881C354D040892B94
:101680008AB985B1832B85B988B1822B88B98BB192
:10169000892B8BB9EAE0F0E06F9364E06A95F1F78B
:1016A0006F913197C9F784B13095832384B987B19D
:1016B0002095822387B98AB1909589238AB985B10B
:1016C000382335B988B1282328B98BB198239BB921
:1016D0009090B000C090B1008091B0008360809382
:1016E000B00082E08093B100D090B20060E070E082
:1016F0003AC05091B2005D19650F711DE3B0E41658
:1017000009F04FC0F6B0FA1609F04BC089B1881540
:1017100009F047C025C0A42FB0E09D01220F331F60
:101720008501020F131FF80180819181892BA1F49B
:101730002C0F3D1FF90181A192A1FC01208130E015
:10174000AC0FBD1F51968C9190E028233923232B99
:1017500019F4F801718360834F5F88854817D8F2C8
:10176000D50E4E2DAF2D8E859F856817790708F20F
:101770009092B000C092B10020E00FC0E22FF0E0E4
:10178000EE0FFF1FEA0DFB1D80819181892B21F453
:101790008E859F85918380832F5F8885281770F3BE
:1017A00005C0E3B0F6B089B040E0D7CFCDB7DEB723
:1017B000ECE027C4A0E0B0E0EFEDFBE00AC4EC01F0
:1017C0008B01D0907C00E0907A00C7B0F8B0809197
:1017D0007A0086FDFCCF90E009C0E92FF0E0EE0F23
:1017E000FF1FE00FF11F118210829F5F88859817FD
:1017F000A0F397B18AA18095982397B998B18923CE
:1018000088B987E880937A0050E025C0FE01E40F94
:10181000F11D8189806480937C0080917A008064CE
:1018200080937A0080917A0086FDFCCFE42FF0E06F
:10183000EE0FFF1FE00FF11F20917800309179002B
:1018400080819181820F931F918380834F5F888570
:101850004817E0F25F5F89A1581710F040E016C00A
:1018600040E0F5CFE42FF0E0EE0FFF1FE00FF11F97
:1018700069A1862F90E09595879520813181820F0F
:10188000931F70E04BD3718360834F5F8885481747
:1018900048F3D0927C00E0927A00F8B8C7B8CDB790
:1018A000DEB7E8E0B2C3A0E2B0E0E8E5FCE090C358
:1018B0008C017B01D42E842F81508230B0F4D8016A
:1018C0001C96ED91FC911D97309779F080811996C7
:1018D0009C911997892B80831A96ED91FC911B9707
:1018E000808119969C91892B8083F80180898823B7
:1018F00039F5C02EB12EC801B70197DED8011C966C
:10190000ED91FC911D97309781F0808119969C9103
:101910001997892B80831A96ED91FC911B979081E2
:1019200019968C91809589238083B2E0DB1609F0AB
:1019300050C08C2D9B2DBE016F5F7F4F76DE25C082
:10194000C02EB12EC801B70135DFD8011C96ED912C
:10195000FC911D97309781F0808119969C91199781
:10196000892B80831A96ED91FC911B979081199693
:101970008C91809589238083B2E0DB1651F58C2D04
:101980009B2DBE016F5F7F4F15DF40E0BE016F5F93
:101990007F4F1AC0E42FF0E0EE0FFF1F6701CE0E5D
:1019A000DF1EE60FF71FD8011E962D913C911F9761
:1019B00080819181281B390BF60180819181820FF2
:1019C000931F918380834F5FD80118968C9148179D
:1019D00008F3A096E9E018C3A0E0B0E0E1EFFCE076
:1019E000F5C2EC01162F072F942E22E0421711F0BA
:1019F000442351F48C819D81892B09F4A1C08E81EF
:101A00009F81892B09F49CC0892D8150823050F42C
:101A100088819981892B09F493C08A819B81892BC4
:101A200009F48EC0CE01612F702F492D3CDF812F2C
:101A3000902F9C015901CC24DD2400E010E07AC0F5
:101A400081E0981669F4EA81FB81E00FF11F2081A3
:101A50003181E881F981E00FF11F408151813DC062
:101A6000AC81BD81992059F4EE81FF81E00FF11F17
:101A700020813181A00FB11F4D915C912EC0A00F2C
:101A8000B11F8D919C91E881F981E00FF11F2081B8
:101A90003181EE85FF858217930710F4AF0105C0F1
:101AA000A9014E0F5F1F481B590BEE81FF81E00F0C
:101AB000F11F60817181EA81FB81E00FF11F80815C
:101AC0009181EE85FF856817790710F49F0105C0A5
:101AD0009C012E0F3F1F261B370B7901E41AF50AD4
:101AE000F1F0F5016081718180E090E09A0140E0C1
:101AF00050E0621B730B840B950B28EE33E040E043
:101B000050E0E1D1970140E050E03ED2C901F3E05E
:101B1000293E3F0714F088EE93E097FF02C080E073
:101B200090E0F501819391935F010894C11CD11C51
:101B30000E5F1F4F888590E0C816D9060CF480CF41
:101B4000CDB7DEB7EBE05EC2A4E0B0E0E9EAFDE0CD
:101B500036C28C01F62EE72E2A833EDFD801189676
:101B6000BC91B9832F2D3E2DC9018C0155244424ED
:101B70006624772443011C821B82AA24BB246501AE
:101B8000B8EE2B2EB3E03B2E31C0F801E080F1809F
:101B9000FA81FF2321F0C1018E199F097C0199EC84
:101BA000E916F10414F044244394A3E3EA16F10483
:101BB00094F0B701882777FD8095982FA6019501AD
:101BC00082D1660E771E881E991EEB81FC81EE0D78
:101BD000FF1DFC83EB83539488EE93E0A0E0B0E01C
:101BE000A80EB91ECA1EDB1E0E5F1F4F9981591623
:101BF00060F2442009F5492F50E04150504084EFF5
:101C000091E0489F9001499F300D589F300D11245D
:101C10008091AB019091AC01821793071CF420E0F6
:101C200030E016C088EE93E0489F9001499F300D48
:101C3000589F300D11240CC0AB81BC819D0140E048
:101C400050E0C401B3017ED12093AB013093AC01CD
:101C5000C9012496E2E1CFC1CF93DF93EC018A81E1
:101C60009B81009709F095D28E819F81009709F0A2
:101C700090D288819981009709F08BD28C819D81C7
:101C8000009709F086D2DF91CF910895A3E6B0E0E6
:101C9000EBE4FEE094C17C015B016A01A2962FAFE8
:101CA000A297DA018D919C91892B09F5F701808526
:101CB00090E0880F991FC0D1D6018D939C93009717
:101CC00009F4DDC020E030E00CC0C901880F991F85
:101CD000D601ED91FC91E80FF91F118210822F5F60
:101CE0003F4FF701808590E02817390774F3D5013D
:101CF0008D919C91892B89F000E010E03E010894C1
:101D0000611C711C41E4242E312C2C0E3D1E31E24D
:101D1000432E512C4C0E5D1E27C0F701808590E0AC
:101D2000880F991F89D1D5018D939C93009709F451
:101D3000A6C020E030E011C0C901880F991FD5016D
:101D4000ED91FC91E80FF91FD7011E968D919C91A2
:101D50001F97918380832F5F3F4FF701808590E02D
:101D6000281739074CF3C8CFC701B301A2964FAD6E
:101D7000A29799DDD70118968C91882E9924A101FC
:101D8000F301A4965FAE4EAEA49760E070E034C05D
:101D90000115110559F0A496AEADBFADA4972D91D4
:101DA0003C91808191812817390758F48081918175
:101DB000A496AEADBFADA4978D939C93011511056C
:101DC00041F0DA012D913C91808191818217930736
:101DD00028F480819181DA018D939C936F5F7F4F0E
:101DE0004E5F5F4F3296A4968EAD9FADA49702963C
:101DF000A4969FAF8EAFA497681579054CF20F5F3C
:101E00001F4F0A30110509F0AFCF40E050E020E04D
:101E100030E08E010F5B1F4FBE016F5D7F4F28C00A
:101E2000F801E20FF31F80809180F601A081B1815B
:101E3000A20FB31F8D919C9111978815990510F4ED
:101E40008D929C92FB01E20FF31F80809180F5013F
:101E5000A081B181A20FB31F8D919C91119788161B
:101E6000990610F48D929C924F5F5F4F2E5F3F4F0B
:101E7000D70118968C9190E0481759078CF2CD59EC
:101E8000DF4FE2E1B8C01F93CF93DF93EC01162F31
:101E9000862F8150823038F4AE014E5F5F4FCE0105
:101EA000BE0121E0F3DE123011F0112341F4AE0146
:101EB0004A5F5F4FCE012496BE0120E0E7DEDF914E
:101EC000CF911F910895629FD001739FF001829F6F
:101ED000E00DF11D649FE00DF11D929FF00D839FB9
:101EE000F00D749FF00D659FF00D9927729FB00D56
:101EF000E11DF91F639FB00DE11DF91FBD01CF0169
:101F000011240895991B79E004C0991F961708F0D1
:101F1000961B881F7A95C9F780950895AA1BBB1B4D
:101F200051E107C0AA1FBB1FA617B70710F0A61BD9
:101F3000B70B881F991F5A95A9F780959095BC01FA
:101F4000CD010895A1E21A2EAA1BBB1BFD010DC0F5
:101F5000AA1FBB1FEE1FFF1FA217B307E407F50759
:101F600020F0A21BB30BE40BF50B661F771F881F35
:101F7000991F1A9469F760957095809590959B01CB
:101F8000AC01BD01CF01089597FB092E05260ED0A7
:101F900057FD04D0D7DF0AD0001C38F45095409587
:101FA000309521953F4F4F4F5F4F0895F6F790952D
:101FB0008095709561957F4F8F4F9F4F08952F9219
:101FC0003F924F925F926F927F928F929F92AF92C9
:101FD000BF92CF92DF92EF92FF920F931F93CF9316
:101FE000DF93CDB7DEB7CA1BDB0B0FB6F894DEBFAD
:101FF0000FBECDBF09942A88398848885F846E84D3
:102000007D848C849B84AA84B984C884DF80EE801C
:10201000FD800C811B81AA81B981CE0FD11D0FB625
:10202000F894DEBF0FBECDBFED010895EE0FFF1F88
:102030000590F491E02D0994CF93DF93BC01823099
:10204000910510F462E070E0A091B101B091B2018D
:10205000ED01E0E0F0E040E050E021C088819981AE
:102060008617970769F48A819B81309719F09383CB
:10207000828304C09093B2018093B101FE0134C009
:102080006817790738F44115510519F08417950739
:1020900008F4AC01FE018A819B819C01E901209733
:1020A000E9F641155105A9F1CA01861B970B049762
:1020B00008F4BA01E0E0F0E02AC08D919C911197FC
:1020C00084179507F9F46417750781F412968D91BA
:1020D0009C911397309719F09383828304C0909357
:1020E000B2018093B101FD0132964FC0CA01861B37
:1020F000970BFD01E80FF91F6193719302978D9380
:102100009C9343C0FD01828193819C01D90110976A
:10211000A1F68091AF019091B001892B41F480919B
:102120003801909139019093B0018093AF014091B3
:102130003A0150913B014115510541F44DB75EB74D
:102140008091360190913701481B590B2091AF01C6
:102150003091B00124173507B0F4CA01821B930BEC
:102160008617970780F0AB014E5F5F4F8417950786
:1021700050F0420F531F5093B0014093AF01F9014B
:102180006193719302C0E0E0F0E0CF01DF91CF9165
:102190000895CF93DF93009709F450C0EC01229784
:1021A0001B821A82A091B101B091B201109709F17E
:1021B00040E050E0AC17BD0708F1BB83AA83FE01E5
:1021C00021913191E20FF31FAE17BF0779F48D9182
:1021D0009C911197280F391F2E5F3F4F3983288319
:1021E00012968D919C9113979B838A83411551057B
:1021F00071F4D093B201C093B10120C012968D91B9
:102200009C911397AD01009711F0DC01D3CFFA0137
:10221000D383C28321913191E20FF31FCE17DF07E1
:1022200069F488819981280F391F2E5F3F4FFA0189
:10223000318320838A819B8193838283DF91CF9135
:10224000089510E0CCEBD0E003C0FE01F1DE229651
:0A225000CE3BD107D1F7F894FFCF81
:10225A00476F0044756D6D79006D56005072657355
:10226A00732042001601E90053696D706C6500180D
:10227A00010301881301040400D007F4010F0002CE
:0C228A00080E0F1011122000B30100001C
:00000001FF
