:1000000041C0000066C0000064C0000062C0000083
:1000100060C000005EC000005CC000005AC000006C
:1000200058C000000C94E01054C0000052C0000002
:1000300050C000000C949F0D4CC000004AC000004E
:1000400048C0000046C0000044C0000042C000009C
:1000500040C000003EC000003CC000003AC00000AC
:1000600038C0000036C000001B0B210B240B270BEF
:100070002A0B2D0B300B330B360B390B3C0B3F0B84
:100080007611771111241FBECFEFD8E0DEBFCDBFB0
:1000900012E0A0E0B1E0E6E5F1E302C005900D92C8
:1000A000A035B107D9F712E0A0E5B2E001C01D927A
:1000B000A73CB107E1F710E0C2E8D0E004C0229706
:1000C000FE010E949617C038D107C9F75ED20C9482
:1000D0009F1896CF282F883068F481E090E002C006
:1000E000880F991F2A95E2F7282FAAE2B0E0EBE2E9
:1000F000F0E029C08E3080F430E02850304081E0BC
:1001000090E002C0880F991F2A95E2F7282FA4E2F9
:10011000B0E0E5E2F0E017C0853130F020E0A0E08B
:10012000B0E0E0E0F0E00FC030E02E50304081E081
:1001300090E002C0880F991F2A95E2F7282FA7E2C6
:10014000B0E0E8E2F0E06F3F19F48081822709C057
:10015000662319F08081822B04C09081822F8095C4
:10016000892380838C91822B8C930895A0E0B0E04A
:10017000ECEBF0E00C9467176B01EA01A0E0B0E053
:10018000BC01CD014CD67B018C0120E030E046E182
:1001900055E46BD51816BCF460E070E08AE795E48E
:1001A000A80197016CD320E030E048E452E4B4D4D5
:1001B00020E030E040E450E4B8D3EDD179836883A7
:1001C00088E790E022C0C801B70120E030E048ECA9
:1001D00054E4A5D58823ACF488E790E0998388831C
:1001E000C801B70120E030E048E452E495D420E0B3
:1001F00030E040E450E499D3CED1F60171836083BE
:1002000007C088E790E099838883F6019183808313
:10021000CDB7DEB7E8E00C948317FC0140E050E076
:100220008281938126813781820F931F20813181C2
:10023000820F931F20853185820F931F8D589A401E
:1002400014F041E050E0CA010895EF92FF920F933D
:100250001F937C010E94230F80E091E00E94AD0F6C
:1002600080E061E00E94F50E8DE20E94AF0F83E016
:1002700061E00E94F50E0027F7FC0095102FC801E1
:10028000B7010E949F0F87E061E00E94F50E8BE2AC
:100290000E94AF0F1F910F91FF90EF900895EF9282
:1002A000FF920F931F937B018C010E94230F89E023
:1002B00091E00E94AD0F80E061E00E94F50EC80160
:1002C000B70128EE33E040E050E00E942017CA0159
:1002D000B9010E949F0F8EE20E94AF0FC801B701C3
:1002E00028EE33E040E050E00E9420170E949F0F6C
:1002F00080ED97E00E941A11FBCFEF92FF920F93CF
:100300001F937C010E94230F8EE091E00E94AD0FAD
:1003100080E061E00E94F50E0027F7FC0095102FA9
:10032000C801B7010E949F0F84E690E00E941A1155
:100330001F910F91FF90EF9008950E94230F86E187
:1003400091E00E94AD0F80E061E00E94F50E8EE129
:1003500091E00E94AD0F80ED97E00C941A110F937D
:100360001F93CF93DF9380E090E060E070E00E9405
:1003700073100E94230F85E291E00E94AD0F00E010
:1003800010E0E801C170D07087E06C2FA3DE60E060
:10039000209709F461E081E09DDECD2B11F480E42B
:1003A00001C08CE364EF71E044E10E94640B84EFD0
:1003B00091E00E941A110F5F1F4F0430110509F7D9
:1003C00081E060E087DE87E060E084DEDF91CF914E
:1003D0001F910F910895AEE0B0E0E1EFF1E00C94D1
:1003E000651795E0E92EF12CEC0EFD1E83E0A82E9A
:1003F000B12CAC0EBD1E6E010894C11CD11CC701EE
:1004000061E00E947A118C01C70107DF892BD1F0CE
:100410008CE390E06CE370E00E9473108E010B5F40
:100420001F4F8FE090E00E941A11C80161E00E9406
:100430007A11C801F2DE892BA1F791DF2E96EAE04E
:100440000C948117C801B601A50190DE6B817C81F7
:1004500089819A810E947310D2CFCF93DF93CCEE23
:10046000DFEFC832D10528F088E290E068ED7FEF39
:1004700004C088ED9FEF68E270E00E94731081E095
:100480000E94811184E190E00E941A112196CC33E0
:10049000D10539F780E090E060E070E00E947310D1
:1004A000DF91CF910895EF92FF920F931F93CF9317
:1004B000DF93EC0180ED97E00E94B411CEDF0E9443
:1004C0005E117B018C0104C086DF2197CE0115DF10
:1004D0001C161D06CCF30E945E119B01AC012E1967
:1004E0003F09400B510BB901CA01CDB7DEB7E6E0B9
:1004F0000C9485171F9382E30E94DE10182F0E9430
:10050000A610812F1F910895EF92FF920F931F93D2
:100510009ED77C010E94230F00E010E0C801B701C4
:100520000E949F0F8CE291E00E94AD0FE3DF1F91CC
:100530000F91FF90EF900895CF93DF9385E090E0C7
:1005400084DEC5E0D0E0D6DF81FF05C0C230D10532
:10055000D4F3219706C084FD07C0CA30D1059CF7AB
:100560002196CE0172DEEFCFCE01DF91CF910895BB
:100570000F931F93E2DEC8DFDFDF182F092FBDDEE8
:10058000812F902F1F910F910895F2DF8CDF87DE6E
:1005900080E090E00895EF92FF920F931F937B010C
:1005A0008C0120E030E040E05FE48CD388237CF0D5
:1005B000C801B70120E030E040E05FE460D1DCD367
:1005C0009B01AC01205030404040504805C0C8015C
:1005D000B701D2D39B01AC01B901CA011F910F91A0
:1005E000FF90EF900895A0E0B0E0E9EFF2E00C9406
:1005F0005D17DC012B01FA019C91923008F439C19E
:10060000EB018881823008F433C1943069F484307E
:1006100009F02FC111969C9111978981981709F4BF
:1006200028C1A2E4B1E025C1843009F421C182309F
:10063000A9F4923009F01DC19A01AD0188E0EA01E8
:100640000990AE01E90109929E018150C1F7E201D2
:10065000898111969C918923818308C1923009F484
:1006600007C112962D903C901397EB018A819B81D4
:100670001496AD90BD90CD90DC901797EC80FD80E6
:100680000E811F819101281B390BB90137FF04C06E
:1006900066277727621B730B603271050CF061C00F
:1006A000121613066CF537014801062E04C0969405
:1006B0008794779467940A94D2F721E030E040E081
:1006C00050E004C0220F331F441F551F6A95D2F714
:1006D00021503040404050402E213F2140235123A3
:1006E000211531054105510521F021E030E040E0C0
:1006F00050E079018A01E628F728082919293CC029
:10070000232BD1F1260E371E35014601062E04C0DB
:1007100096948794779467940A94D2F721E030E016
:1007200040E050E004C0220F331F441F551F6A955C
:10073000D2F721503040404050402A213B214C21EB
:100740005D21211531054105510521F021E030E001
:1007500040E050E059016A01A628B728C828D928E6
:100760000BC0821593052CF01C01AA24BB24650143
:1007700003C0EE24FF24870111969C91D2011196AB
:100780008C91981709F445C0992339F0A801970175
:100790002A193B094C095D0906C0A60195012E19CD
:1007A0003F09400B510B57FD08C011823382228252
:1007B00024833583468357831DC081E08183338240
:1007C000228288279927DC01821B930BA40BB50B8F
:1007D00084839583A683B7830DC0220F331F441FE4
:1007E000551F2483358346835783828193810197E4
:1007F000938382832481358146815781DA01C9013F
:100800000197A109B1098F5F9F4FAF4FBF4328F3F5
:100810000BC0918333822282EA0CFB1C0C1D1D1D30
:10082000E482F5820683178383E080832481358107
:100830004681578157FF1AC0C901AA2797FDA09585
:10084000BA2F81709070A070B0705695479537950B
:100850002795822B932BA42BB52B84839583A6837A
:10086000B78382819381019693838283DF0101C0E4
:10087000D201CD01CDB7DEB7E2E10C947917A0E249
:10088000B0E0E5E4F4E00C94691769837A838B8324
:100890009C832D833E834F835887E9E0EE2EF12C15
:1008A000EC0EFD1ECE010196B70154D48E010F5EF1
:1008B0001F4FCE010596B8014DD48A8991E0892752
:1008C0008A8BC701B801AE01475E5F4F8CDE6DD3E6
:1008D000A096E6E00C948517A0E2B0E0E2E7F4E031
:1008E0000C94691769837A838B839C832D833E8361
:1008F0004F835887F9E0EF2EF12CEC0EFD1ECE0150
:100900000196B70127D48E010F5E1F4FCE010596C9
:10091000B80120D4C701B801AE01475E5F4F63DE66
:1009200044D3A096E6E00C948517A0E2B0E0EBE992
:10093000F4E00C945D1769837A838B839C832D8309
:100940003E834F835887CE010196BE01675F7F4F7C
:1009500001D4CE010596BE016F5E7F4FFBD3998512
:10096000923088F089898230C8F0943019F482304E
:1009700051F404C0843029F4923081F482E491E08F
:10098000C6C0923049F420E09A858A89981321E004
:100990002A87CE010996BBC0823049F420E09A85AF
:1009A0008A89981321E02A8BCE014196B0C02D840C
:1009B0003E844F8458886D887E888F88988CEE247A
:1009C000FF248701AA24BB24650140E050E060E0D9
:1009D00070E0E0E0F0E0C10181709070892BE9F0F7
:1009E000E60CF71C081D191D9A01AB012A0D3B1DD1
:1009F0004C1D5D1D80E090E0A0E0B0E0E614F7043F
:100A00000805190520F481E090E0A0E0B0E0BA010B
:100A1000A901480F591F6A1F7B1FAA0CBB1CCC1CC5
:100A2000DD1C97FE08C081E090E0A0E0B0E0A82ABD
:100A3000B92ACA2ADB2A3196E032F10549F0660C60
:100A4000771C881C991C5694479437942794C3CFDD
:100A5000FA85EA892B893C898B859C85280F391F6B
:100A60002E5F3F4F17C0CA0181709070892B61F0D3
:100A700016950795F794E79480E090E0A0E0B0E841
:100A8000E82AF92A0A2B1B2B7695679557954795E7
:100A90002F5F3F4F77FDE7CF0CC0440F551F661FF8
:100AA000771F17FD4160EE0CFF1C001F111F215026
:100AB0003040403090E0590790E0690790E47907B2
:100AC00060F32B8F3C8FDB01CA018F779070A07091
:100AD000B07080349105A105B10561F447FD0AC0ED
:100AE000E114F1040105110529F0405C5F4F6F4FDF
:100AF0007F4F40781A8EFE1711F081E08A8F4D8F5C
:100B00005E8F6F8F78A383E0898FCE0149964DD297
:100B1000A096E2E10C947917A8E1B0E0E2E9F5E0F3
:100B20000C94651769837A838B839C832D833E8322
:100B30004F835887B9E0EB2EF12CEC0EFD1ECE0151
:100B40000196B70107D38E010F5E1F4FCE010596A8
:100B5000B80100D32985223008F47EC039893230AB
:100B600010F4B8017CC08A859A8989278A87243045
:100B700011F0223031F4231709F06EC062E471E005
:100B80006EC0343039F41D861E861F86188A1C8676
:100B90001B8604C0323021F484E08987B7015FC02E
:100BA0002B853C858B899C89281B390B3C872B879F
:100BB000ED84FE840F851889AD88BE88CF88D88CD7
:100BC000EA14FB040C051D0540F4EE0CFF1C001F8D
:100BD000111F215030403C872B8720E030E040E05F
:100BE00050E080E090E0A0E0B0E460E070E0EA1463
:100BF000FB040C051D0540F0282B392B4A2B5B2BE1
:100C0000EA18FB080C091D09B695A79597958795D5
:100C1000EE0CFF1C001F111F6F5F7F4F6F317105BE
:100C200031F7DA01C9018F779070A070B07080340D
:100C30009105A105B10561F427FD0AC0E114F10495
:100C40000105110529F0205C3F4F4F4F5F4F207881
:100C50002D873E874F87588BBE01675F7F4FCB0143
:100C6000A4D16896EAE00C948117A8E1B0E0EBE328
:100C7000F6E00C94691769837A838B839C832D83B8
:100C80003E834F83588789E0E82EF12CEC0EFD1E41
:100C9000CE010196B7015ED28E010F5E1F4FCE01CD
:100CA0000596B80157D28985823038F0898982301B
:100CB00020F0C701B801C6D201C08FEF6896E6E008
:100CC0000C948517A8E1B0E0E8E6F6E00C9469170B
:100CD00069837A838B839C832D833E834F835887DC
:100CE00089E0E82EF12CEC0EFD1ECE010196B70135
:100CF00031D28E010F5E1F4FCE010596B8012AD268
:100D00008985823038F08989823020F0C701B801A6
:100D100099D201C08FEF6896E6E00C948517A8E1A0
:100D2000B0E0E5E9F6E00C94691769837A838B8378
:100D30009C832D833E834F83588789E0E82EF12CD6
:100D4000EC0EFD1ECE010196B70104D28E010F5E9E
:100D50001F4FCE010596B801FDD18985823038F04C
:100D60008989823020F0C701B8016CD201C081E0CE
:100D70006896E6E00C948517ACE0B0E0E2ECF6E0B3
:100D80000C946D1769837A838B839C83CE010196C3
:100D9000BE016B5F7F4FDED18D81823061F1823089
:100DA00050F1843021F48E81882351F12EC02F819F
:100DB000388537FD20C06E812F3131051CF0662348
:100DC000F9F023C08EE190E0821B930B29853A85D0
:100DD0004B855C8504C056954795379527958A9530
:100DE000D2F76623B1F050954095309521953F4F4D
:100DF0004F4F5F4F0EC020E030E040E050E009C0B0
:100E00002FEF3FEF4FEF5FE704C020E030E040E01E
:100E100050E8B901CA012C96E2E00C948917A8E0C9
:100E2000B0E0E5E1F7E00C9465177B018C016115FA
:100E300071058105910519F482E089835FC083E023
:100E400089838EE1C82ED12CDC82CB82ED82FE829A
:100E50000F831887C801B70159D0FC013197F7FFFC
:100E60003BC0222733272E1B3F0B57016801022E60
:100E700004C0D694C794B794A7940A94D2F740E0DC
:100E800050E060E070E081E090E0A0E0B0E004C0FD
:100E9000880F991FAA1FBB1F2A95D2F70197A10996
:100EA000B1098E219F21A023B1230097A105B1058F
:100EB00021F041E050E060E070E04A295B296C29B4
:100EC0007D294D835E836F8378878EE190E08E1B52
:100ED0009F0B9C838B8312C0309781F00E2E04C031
:100EE000EE0CFF1C001F111F0A94D2F7ED82FE8248
:100EF0000F831887CE1ADF0ADC82CB821A82CE01DA
:100F0000019653D02896EAE00C948117EF92FF9255
:100F10000F931F937B018C0180E0E81680E0F806B8
:100F200081E0080780E0180788F48FEFE816F104E5
:100F30000105110531F028F088E090E0A0E0B0E074
:100F400017C080E090E0A0E0B0E012C080E0E816BA
:100F500080E0F80680E0080781E0180728F088E1C3
:100F600090E0A0E0B0E004C080E190E0A0E0B0E05C
:100F700020E230E040E050E0281B390B4A0B5B0BCD
:100F800004C016950795F794E7948A95D2F7F70170
:100F9000E65BFE4F8081281B310941095109C901D7
:100FA0001F910F91FF90EF900895DF92EF92FF92C3
:100FB0000F931F93FC01E480F58006811781D18097
:100FC0008081823048F480E090E0A0E1B0E0E82A3F
:100FD000F92A0A2B1B2BA5C0843009F49FC082304C
:100FE00021F4EE24FF24870105C0E114F10401057A
:100FF000110519F4E0E0F0E096C0628173819FEF83
:10100000623879070CF05BC022E83FEF261B370BF4
:101010002A3131052CF020E030E040E050E02AC0D9
:10102000B801A701022E04C076956795579547959C
:101030000A94D2F781E090E0A0E0B0E004C0880F0D
:10104000991FAA1FBB1F2A95D2F70197A109B109C1
:101050008E219F21A023B1230097A105B10521F086
:1010600081E090E0A0E0B0E09A01AB01282B392BA1
:101070004A2B5B2BDA01C9018F779070A070B0709A
:1010800080349105A105B10539F427FF09C0205C22
:101090003F4F4F4F5F4F04C0215C3F4F4F4F5F4F5B
:1010A000E0E0F0E02030A0E03A07A0E04A07A0E44A
:1010B0005A0710F0E1E0F0E079018A0127C06038BA
:1010C000710564F5FB01E158FF4FD801C7018F7727
:1010D0009070A070B07080349105A105B10539F40D
:1010E000E7FE0DC080E490E0A0E0B0E004C08FE334
:1010F00090E0A0E0B0E0E80EF91E0A1F1B1F17FFEA
:1011000005C016950795F794E794319687E01695F4
:101110000795F794E7948A95D1F705C0EE24FF244C
:101120008701EFEFF0E06E2F679566276795902FA8
:101130009F77D794DD24D7948E2F8695492F462B01
:10114000582F5D29B701CA011F910F91FF90EF90B1
:10115000DF900895FC01DB01408151812281622FE3
:101160006F7770E0221F2227221F9381892F880F1B
:10117000822B282F30E0991F9927991F11969C9355
:10118000119721153105A9F5411551056105710525
:1011900011F482E037C082E89FEF13969C938E9300
:1011A00012979A01AB0167E0220F331F441F551FAE
:1011B0006A95D1F783E08C930DC0220F331F441F33
:1011C000551F12968D919C911397019713969C939E
:1011D0008E931297203080E0380780E0480780E443
:1011E000580758F314962D933D934D935C9317979E
:1011F00008952F3F310579F44115510561057105B9
:1012000019F484E08C93089564FF03C081E08C930B
:1012100012C01C9210C02F57304013963C932E934F
:10122000129783E08C9387E0440F551F661F771F4A
:101230008A95D1F7706414964D935D936D937C936A
:10124000179708951F93DC01FB019C91923008F4DD
:1012500047C08081823008F443C0943051F4119625
:101260001C91843099F58181682F70E0611B7109B0
:101270003FC0843021F0923031F48230B9F1818165
:10128000882389F12DC011961C9111978230F1F0BD
:1012900081811817D9F412962D913C911397828170
:1012A00093818217930794F028173907BCF014969E
:1012B0008D919D910D90BC91A02D24813581468109
:1012C0005781281739074A075B0718F4112341F0A3
:1012D0000AC082179307A407B50740F4112319F039
:1012E00061E070E005C06FEF7FEF02C060E070E08A
:1012F000CB011F910895EF92FF920F931F93982FA8
:10130000803278F487E880937A0080917C00806452
:101310008076892B80937C0080917A008064809312
:101320007A0080917A0086FDFCCFFB01EE24FF2439
:10133000870180917A00806480937A0080917A009E
:1013400086FDFCCF80917C0085FF04C080917900F0
:1013500090E004C08091780090917900A0E0B0E026
:10136000E80EF91E0A1F1B1F319719F7CB0196953E
:1013700087956034710538F48E0D9F1D70E00E94D2
:101380000C179B010DC0A0E0B0E0E80EF91E0A1F8B
:101390001B1F9B0140E050E0C801B7010E942017CD
:1013A000C9011F910F91FF90EF900895A0E0B0E068
:1013B00020912F013091300140E050E0BC01CD017F
:1013C0000E94E1169B01AC0180917C0085FF0BC05F
:1013D000B901CA0161587F4F8F4F9F4F2FEF30E007
:1013E00040E050E00AC0B901CA0161507E4F8F4F02
:1013F0009F4F2FEF33E040E050E00E942017C901DB
:10140000089579DFD3CF1F9310917C0080917C00E9
:101410008F7D80937C0086E06AE070E0F2DFAC01B3
:1014200015FD04C080917C008F7D03C080917C00FD
:10143000806280937C009A01220F331F240F351F96
:101440002F5F3F4F36952795C9011F910895DBCF38
:101450000895A0E0B0E0EFE2FAE00C946517FC011B
:101460005B01C42E809150028823C9F481E08093EF
:10147000500210926F0083E28093800081E180939C
:1014800081001092820080E197E29093890080931E
:10149000880010928B0010928A00229A7894109201
:1014A0003101F7FD03C0DD24D39403C0FF772AE0A8
:1014B000D22E80918100082F10E0087F107088ECF8
:1014C000D89EC00111248E179F07C0F4EF0187E258
:1014D000E131F80710F0C0E1D7E2BE0176956795DB
:1014E00080E090E06058794687469F4F9E0140E03B
:1014F00050E00E9420177901016024C088E2D89E44
:10150000802D1124C82FD0E0CE17DF0708F4EF019B
:10151000BE01769567959E0140E050E08AE0D816BE
:1015200039F480E090E0605E734481449F4F06C0D0
:1015300080E090E060537D4E8C4E9F4F0E942017BC
:10154000790102608AE0D81639F4CE0105966AE086
:1015500070E00E940C17EB0183E0C83ED80711F43D
:10156000B5010FC0BE0180E090E0950140E050E081
:101570000E94E11628EE33E040E050E00E9442175E
:10158000B90110926F0000938100F0928900E092FF
:101590008800E0918800F0918900AC2DA03108F01E
:1015A000AFE080E190E08A1B910902C0F695E795D3
:1015B0008A95E2F7F0938B00E0938A0070935802CB
:1015C0006093570286B38FEF86BB81E080936F00F4
:1015D000CDB7DEB7EAE00C948117CF93DF93EB0130
:1015E0008F3F11F0442329F488EE93E0BE0140E0E0
:1015F00067C0813110F420E005C0282F205120362B
:1016000008F02FE5822F6CE00E940017382F682F1A
:1016100070E084EF9FEF689FF001699FF00D789F65
:10162000F00D1124E20FF11DEC30F10538F4EC5C03
:10163000FF4F0C9494178CE991E023C080E090E078
:1016400020C085EB91E01DC08FEC91E01AC08AEEBE
:1016500091E017C087E092E014C086E292E011C0EA
:1016600087E492E00EC089E692E00BC08EE892E03B
:1016700008C085EB92E005C08EED92E002C08AE0E2
:1016800093E0373071F002C0880F991F6A95E2F736
:10169000323020F005966AE070E00BC08050904830
:1016A0000BC036E0880F991F3A95E1F7029665E086
:1016B00070E00E940C17CB01403108F04FE0BE01F2
:1016C000C8DEDF91CF91089588CF089530915502FB
:1016D000E0915102F0915202332311F0249101C0A4
:1016E0002081822F81548A3108F4205E203259F4FF
:1016F00080915102909152020196909352028093F0
:101700005102019729F7822F0895CF93DF93DEDFEF
:10171000282FC0E0D0E01CC0CE0153E0880F991FF5
:101720005A95E1F7CC0FDD1FC80FD91F822F9927DB
:1017300087FD9095C80FD91FE09780915102909135
:10174000520201969093520280935102BFDF282FDC
:10175000822F80538A3000F3CE01DF91CF9108951C
:10176000A0E0B0E0E6EBFBE00C9463178090320160
:10177000B0905302BB2021F060915402662399F48B
:10178000A09054020091370110913801E09033018C
:10179000F0903401C0913501D0913601C0903901EB
:1017A000D0903A0103C18FEF70E040E016DF109255
:1017B0005402C0C194E0892EBB2404EF11E084E000
:1017C000E82EF12CC0EDD7E0B4E09B2EAFE0CA2E9E
:1017D000D12C7CDF282F80915102909152020196EA
:1017E0009093520280935102263609F498C027360E
:1017F000CCF42236A1F1233674F42E3361F12F3369
:1018000034F42132B9F22C3309F006C126C0213656
:1018100009F002C11CC1243609F451C025360CF070
:1018200066C035C02F3609F4BFC0203754F42C36BB
:1018300009F4A5C02D3609F4A5C0273609F0ECC07F
:1018400086C0243709F4CEC0263709F4E2C0223717
:1018500009F0E2C0ADC08394BCCF8A94BACFA09205
:101860005402B09253021093380100933701F09262
:101870003401E0923301D0933601C0933501909248
:101880003201D0923A01C09239012BE0F7C0A09208
:101890005402B09253021093380100933701F09232
:1018A0003401E0923301D0933601C0933501909218
:1018B0003201D0923A01C092390120E0DFC0A092FB
:1018C0005402B09253021093380100933701F09202
:1018D0003401E0923301D0933601C09335019092E8
:1018E0003201D0923A01C092390122E0C7C0A092E1
:1018F0005402B09253021093380100933701F092D2
:101900003401E0923301D0933601C09335019092B7
:101910003201D0923A01C092390124E0AFC0A092C6
:101920005402B09253021093380100933701F092A1
:101930003401E0923301D0933601C0933501909287
:101940003201D0923A01C092390125E097C0A092AD
:101950005402B09253021093380100933701F09271
:101960003401E0923301D0933601C0933501909257
:101970003201D0923A01C092390127E07FC0C5DE22
:101980007C0141C0A3DE8C3611F4BB2403C0AA2421
:10199000BB24B3948091510290915202019690938E
:1019A00052028093510215CFB0DE882E982C11CFB1
:1019B000A0925402B0925302109338010093370161
:1019C000F0923401E0923301D0933601C093350197
:1019D00090923201D0923A01C092390120E0FF2466
:1019E000F3944DC092DEBC0180EC9DE50E940C1783
:1019F000CB01EB01F3E0CC0FDD1FFA95E1F7880F87
:101A0000991FC80FD91FCE01B7010E940C178B0177
:101A1000E0CE7BDE6C01DDCEA0925402B092530288
:101A20001093380100933701F0923401E0923301B2
:101A3000D0933601C093350190923201D0923A0191
:101A4000C0923901109252021092510273C0A092BA
:101A50005402B09253021093380100933701F09270
:101A60003401E0923301D0933601C0933501909256
:101A70003201D0923A01C092390129E0FF248CE072
:101A8000889EC0011124E22EE80E0AC08091510206
:101A90009091520201969093520280935102E394E6
:101AA00015DE8B3299F3833289F30BC0809151029A
:101AB0009091520201969093520280935102EA94BF
:101AC00005DE8D3299F3C0913701D09138018153F1
:101AD000883050F4009135011091360116DEBC01BA
:101AE000C8010E940C17EB018E010BC080915102BE
:101AF0009091520201969093520280935102C00F2E
:101B0000D11F16950795E2DD8E3281F38091530245
:101B1000882339F0CE019695879580935402C81B8F
:101B2000D109FF2011F0EE24EA948E2DBE014091E0
:101B3000390153DDCDB7DEB7ECE00C947F171F926F
:101B40000F920FB60F9211242F933F934F935F93F1
:101B50006F937F938F939F93AF93BF93EF93FF9375
:101B60008091570290915802019790935802809368
:101B70005702019609F510926F00789480918100C8
:101B8000887F81608093810080E197E29093890053
:101B90008093880010928B0010928A0081E08093DD
:101BA00031018091510290915202892B29F080914C
:101BB0005602882309F4D4DDFF91EF91BF91AF91D4
:101BC0009F918F917F916F915F914F913F912F9155
:101BD0000F900FBE0F901F901895EF92FF920F93EA
:101BE0001F936AB157985A98289AE0905D02F09036
:101BF0005E0200915F021091600220E030E041E05F
:101C000050E0CA016F9364E06A95F1F76F91019714
:101C1000C9F75C9ACA016F9364E06A95F1F76F9116
:101C20000197C9F789B15C98FA016F9364E06A95EE
:101C3000F1F76F913197C9F75C9AFA016F9364E0FD
:101C40006A95F1F76F913197C9F75C9887FF0BC0E0
:101C50002C5F3F4FC901A0E0B0E08E159F05A007A3
:101C6000B10708F4CECF6AB91F910F91FF90EF90A2
:101C7000089565B190E0AC0141705070440F551F5C
:101C80009C012670307053E0220F331F5A95E1F704
:101C9000422B6D7C462B45B92BB18870907034E097
:101CA000880F991F3A95E1F72F77282B2BB95C9A6B
:101CB00081E090E0FC016F9364E06A95F1F76F9129
:101CC0003197C9F75C986F9364E06A95F1F76F916B
:101CD0000197C9F7089580E197E2A0E0B0E0809312
:101CE0005D0290935E02A0935F02B0936002529AED
:101CF000209A549A8EE190E09DD283E032D186E022
:101D000090E098D283E02DD182E090E093D283E0FE
:101D100028D182E090E08ED282E023D182E090E070
:101D200089D288E241D088E03FD081E03DD086E092
:101D30003BD08CE039C080916102882321F481E09E
:101D400080936102C8CF0895BF92CF92DF92EF9245
:101D5000FF920F931F93082F162FF42EECDF3DDF19
:101D6000B4B0C5B0DAB0EBB02898112311F05A9A8C
:101D700001C05A9884B1826384B9579A81E0F816F9
:101D800021F0802F82958F7074DF802F8F7071DF2C
:101D9000DAB8EBB8B4B8C5B81F910F91FF90EF90C7
:101DA000DF90CF90BF90089560E042E0CDCFA4E0F7
:101DB000B0E0EDEDFEE00C946B17182F062F80E8D5
:101DC000898380EC8A8384E98B8384ED8C83FE0194
:101DD000E60FF11D8181810FE7DF10935C02009314
:101DE0005B022496E4E00C948717E1CF089581E02C
:101DF000DBDF8091590290915A02892B19F160E042
:101E000070E208C0E0915902F0915A02E40FF51F08
:101E100070836F5F462F50E080913B0190E0019707
:101E200020913C0130E0FC01E29FC001E39F900D56
:101E3000F29F900D11244817590724F310925C0269
:101E400010925B020895D3CF089561E042E07CCF09
:101E50006F927F928F929F92AF92BF92CF92DF92BA
:101E6000FF920F93DF93CF93CDB7DEB72A970FB6CC
:101E7000F894DEBF0FBECDBF5B016C010AE03E01EE
:101E80000894611C711CFA2CC601B5012AE030E0EF
:101E900040E050E0D5D7C901DA015C016D01015085
:101EA0004301800E911C80E3F80EC601B5012AE0C3
:101EB00030E040E050E085D7F61AF401F082A1143A
:101EC000B104C104D104F9F607C0F601E00FF11D19
:101ED0008081BBDF0F5F04C06E010894C11CD11C60
:101EE0000A3098F32A960FB6F894DEBF0FBECDBF26
:101EF000CF91DF910F91FF90DF90CF90BF90AF9087
:101F00009F908F907F906F900895EF92FF920F9324
:101F10001F937B018C0197FF0AC010950095F094E8
:101F2000E094E11CF11C011D111D8DE28EDFC80142
:101F3000B7018EDF1F910F91FF90EF900895E5CFCD
:101F40000895CF93DF93EC0102C021967EDF888154
:101F50008823D9F7DF91CF910895F3CF089575CFF6
:101F6000089560E041E0F0CE282F883068F481E0E9
:101F700090E002C0880F991F2A95E2F7282FAAE265
:101F8000B0E0EBE2F0E029C08E3080F430E0285081
:101F9000304081E090E002C0880F991F2A95E2F757
:101FA000282FA4E2B0E0E5E2F0E017C0853130F080
:101FB00020E0A0E0B0E0E0E0F0E00FC030E02E5024
:101FC000304081E090E002C0880F991F2A95E2F727
:101FD000282FA7E2B0E0E8E2F0E06F3F19F480813B
:101FE000822709C0662319F08081822B04C090816A
:101FF000822F8095892380838C91822B8C930895E6
:10200000E0EBF0E083EF8083808184BDE1EBF0E0E2
:1020100082E08083808185BDE4EBF0E010828081E6
:10202000E3EBF0E08083808188BD88B587BD86E0E2
:1020300060E09ADF85E060E097DF8BE060E094DFAE
:1020400083E060E091CF80916202882321F481E0F7
:1020500080936202D5CF0895CF93DF93EC01F3DF35
:10206000D7FD02C020E004C0D095C195DF4F21E02C
:10207000CE01CF3FD10519F014F08FEF90E022236D
:1020800019F018BC87BD02C088BD17BCDF91CF9185
:102090000895CF93DF93EC01D6DFD7FD02C020E097
:1020A00004C0D095C195DF4F21E0CE01CF3FD105CF
:1020B00019F014F08FEF90E0222329F01092B40071
:1020C0008093B30004C08093B4001092B300DF91FA
:1020D000CF9108950F931F938B01BEDFC801D9DF05
:1020E0001F910F910895F6CF08951F93CF93DF931B
:1020F000182F80916302882391F481E0809363021A
:1021000084B18D7C84B985B1826385B985E090E026
:102110006F9364E06A95F1F76F910197C9F7C12F4A
:10212000D0E083B190E08C239D23892BD1F38AE00A
:1021300090E080D083B190E08C239D23892B89F39C
:1021400083B18123DF91CF911F910895CECF089560
:102150001F93CF93DF93182F80916302882391F40C
:1021600081E08093630284B18D7C84B985B1826300
:1021700085B985E090E06F9364E06A95F1F76F911F
:102180000197C9F7C12FD0E083B190E08095909579
:102190008C239D23892BC1F38AE090E04BD083B13F
:1021A00090E0809590958C239D23892B69F383B1D2
:1021B00080958123DF91CF911F910895C9CF089514
:1021C0002F928F939F932FB68091710290917202FC
:1021D0000196809371029093720290E08091730255
:1021E000891F80937302909179029C5F909379028A
:1021F0008091780280519742C0F090937902809349
:102200007802809174029091750201968093740215
:102210009093750290E080917602891F80937602F8
:1022200080917702891F809377022FBE9F918F91B3
:102230002F90189528EE33E009C0F9016F9364E000
:102240006A95F1F76F913197C9F701970097A9F750
:102250000895A0E7B0E08C918E7F8C93E0EBF0E0E6
:10226000808183608083E1EBF0E08081807F8083E8
:10227000808182608083B89A8C9181608C937894FD
:10228000089580917A02882321F481E080937A0274
:10229000E0CF0895F6DFE0E7F0E080818E7F808375
:1022A000209174023091750240917602509177022C
:1022B000808181608083B901CA010895EBCF0895C0
:1022C000E0DFE0E7F0E080818E7F8083109274028F
:1022D0001092750210927602109277021092790293
:1022E00010927802808181608083089508958BE741
:1022F00092E030C49C01462F8BE792E0B90120E0C8
:10230000A1C3682F8BE792E03CC50F93DF93CF9377
:1023100000D000D00F92CDB7DEB79C01962FDE0122
:102320001196EDE3F1E085E001900D928150E1F727
:10233000BE016F5F7F4F992329F08BE792E045E064
:102340000FEF04C08BE792E045E003E174D08BE728
:1023500092E059D0B5DF0F900F900F900F900F9033
:10236000CF91DF910F91089560E0CFCFFC011182F2
:1023700010821382128215821482178216826131B2
:1023800018F080E1808701C06087208B483060F4BE
:1023900081E090E002C0880F991F4A95E2F74AE277
:1023A00050E02BE230E029C04E3080F4242F30E0A2
:1023B0002850304081E090E002C0880F991F2A9594
:1023C000E2F744E250E025E230E017C0453130F05A
:1023D00080E040E050E020E030E00FC0242F30E00B
:1023E0002E50304081E090E002C0880F991F2A955E
:1023F000E2F747E250E028E230E081873387228726
:10240000558744870895DC011C96ED91FC911D973A
:10241000309781F0808119969C911997892B808340
:102420001A96ED91FC911B97908119968C9180954D
:10243000892380830895A0E0B0E0E0E2F2E145C5A1
:10244000EC015B01642F7901402F20E08FDFCE018A
:102450008F5B9F4FFC011082DE01AE5BBF4F1C9271
:10246000FE01ED5BFF4F1082FF86EE8640E061E0EB
:1024700070E06F017D018C014EC0F501E40FF11D8C
:102480008081883050F49B0102C0220F331F8A954F
:10249000E2F7922F29E230E01FC08E3060F490E026
:1024A0000897FB0102C0EE0FFF1F8A95E2F79E2FEF
:1024B00023E230E011C0853120F090E020E030E0F0
:1024C0000BC090E00E979B0102C0220F331F8A952C
:1024D000E2F7922F26E230E0E42FF0E0DE01AE0FCB
:1024E000BF1F51969C93EE0FFF1FEC0FFD1F32A3F1
:1024F00021A32332310511F4F80109C02632310538
:1025000011F4F70104C02932310521F4F60180816C
:10251000982B90834F5F8885481708F4AECFCDB7CE
:10252000DEB7EAE0EEC4A0E0B0E0E8E9F2E1CBC457
:10253000EC015B01CF5BDF4F4991A9918880C354C7
:10254000D04090E009C0E92FF0E0EE0FFF1FEA0D48
:10255000FB1D118210829F5F88859817A0F384B1BC
:10256000CF5BDF4F3991832B84B987B12991822BBF
:1025700087B98AB19881C354D040892B8AB985B173
:10258000832B85B988B1822B88B98BB1892B8BB904
:10259000EAE0F0E06F9364E06A95F1F76F913197AC
:1025A000C9F784B13095832384B987B120958223FC
:1025B00087B98AB1909589238AB985B1382335B90D
:1025C00088B1282328B98BB198239BB99090B0008B
:1025D000C090B1008091B00083608093B00082E031
:1025E0008093B100D090B20060E070E03AC05091AA
:1025F000B2005D19650F711DE3B0E41609F04FC01C
:10260000F6B0FA1609F04BC089B1881509F047C039
:1026100025C0A42FB0E09D01220F331F8501020FBA
:10262000131FF80180819181892BA1F42C0F3D1F8C
:10263000F90181A192A1FC01208130E0AC0FBD1F06
:1026400051968C9190E028233923232B19F4F8011B
:10265000718360834F5F88854817D8F2D50E4E2D61
:10266000AF2D8E859F856817790708F29092B0008C
:10267000C092B10020E00FC0E22FF0E0EE0FFF1F8C
:10268000EA0DFB1D80819181892B21F48E859F8528
:10269000918380832F5F8885281770F305C0E3B08E
:1026A000F6B089B040E0D7CFCDB7DEB7ECE027C4B5
:1026B000A0E0B0E0EDE5F3E10AC4EC018B01D090BD
:1026C0007C00E0907A00C7B0F8B080917A0086FD77
:1026D000FCCF90E009C0E92FF0E0EE0FFF1FE00F04
:1026E000F11F118210829F5F88859817A0F397B120
:1026F0008AA18095982397B998B1892388B987E8EA
:1027000080937A0050E025C0FE01E40FF11D81891D
:10271000806480937C0080917A00806480937A004A
:1027200080917A0086FDFCCFE42FF0E0EE0FFF1FD2
:10273000E00FF11F20917800309179008081918124
:10274000820F931F918380834F5F88854817E0F243
:102750005F5F89A1581710F040E016C040E0F5CF48
:10276000E42FF0E0EE0FFF1FE00FF11F69A1862FAD
:1027700090E09595879520813181820F931F70E0BD
:102780004BD3718360834F5F8885481748F3D0929D
:102790007C00E0927A00F8B8C7B8CDB7DEB7E8E0C1
:1027A000B2C3A0E2B0E0E6EDF3E190C38C017B019F
:1027B000D42E842F81508230B0F4D8011C96ED9134
:1027C000FC911D97309779F0808119969C9119970B
:1027D000892B80831A96ED91FC911B978081199625
:1027E0009C91892B8083F8018089882339F5C02E3C
:1027F000B12EC801B70197DED8011C96ED91FC916E
:102800001D97309781F0808119969C911997892B9B
:1028100080831A96ED91FC911B97908119968C916B
:10282000809589238083B2E0DB1609F050C08C2D9F
:102830009B2DBE016F5F7F4F76DE25C0C02EB12E6F
:10284000C801B70135DFD8011C96ED91FC911D97A9
:10285000309781F0808119969C911997892B8083FC
:102860001A96ED91FC911B97908119968C91809509
:1028700089238083B2E0DB1651F58C2D9B2DBE01A0
:102880006F5F7F4F15DF40E0BE016F5F7F4F1AC063
:10289000E42FF0E0EE0FFF1F6701CE0EDF1EE60F04
:1028A000F71FD8011E962D913C911F978081918131
:1028B000281B390BF60180819181820F931F918330
:1028C00080834F5FD80118968C91481708F3A09623
:1028D000E9E018C3A0E0B0E0EFE6F4E1F5C2EC01F6
:1028E000162F072F942E22E0421711F0442351F4A3
:1028F0008C819D81892B09F4A1C08E819F81892BB8
:1029000009F49CC0892D8150823050F488819981CE
:10291000892B09F493C08A819B81892B09F48EC08D
:10292000CE01612F702F492D3CDF812F902F9C010C
:102930005901CC24DD2400E010E07AC081E0981633
:1029400069F4EA81FB81E00FF11F20813181E88188
:10295000F981E00FF11F408151813DC0AC81BD8103
:10296000992059F4EE81FF81E00FF11F2081318120
:10297000A00FB11F4D915C912EC0A00FB11F8D9182
:102980009C91E881F981E00FF11F20813181EE8572
:10299000FF858217930710F4AF0105C0A9014E0F00
:1029A0005F1F481B590BEE81FF81E00FF11F608113
:1029B0007181EA81FB81E00FF11F80819181EE85B9
:1029C000FF856817790710F49F0105C09C012E0F41
:1029D0003F1F261B370B7901E41AF50AF1F0F501C8
:1029E0006081718180E090E09A0140E050E0621BDC
:1029F000730B840B950B28EE33E040E050E0E1D1FF
:102A0000970140E050E03ED2C901F3E0293E3F0784
:102A100014F088EE93E097FF02C080E090E0F501AB
:102A2000819391935F010894C11CD11C0E5F1F4FCD
:102A3000888590E0C816D9060CF480CFCDB7DEB7F4
:102A4000EBE05EC2A4E0B0E0E7E2F5E136C28C0163
:102A5000F62EE72E2A833EDFD8011896BC91B98363
:102A60002F2D3E2DC9018C01552444246624772442
:102A700043011C821B82AA24BB246501B8EE2B2EC5
:102A8000B3E03B2E31C0F801E080F180FA81FF23F2
:102A900021F0C1018E199F097C0199ECE916F1041E
:102AA00014F044244394A3E3EA16F10494F0B7012C
:102AB000882777FD8095982FA601950182D1660E13
:102AC000771E881E991EEB81FC81EE0DFF1DFC8395
:102AD000EB83539488EE93E0A0E0B0E0A80EB91E1B
:102AE000CA1EDB1E0E5F1F4F9981591660F24420EB
:102AF00009F5492F50E04150504084EF91E0489F44
:102B00009001499F300D589F300D11248091BF02D4
:102B10009091C002821793071CF420E030E016C0A9
:102B200088EE93E0489F9001499F300D589F300DEB
:102B300011240CC0AB81BC819D0140E050E0C40178
:102B4000B3017ED12093BF023093C002C901249605
:102B5000E2E1CFC1CF93DF93EC018A819B810097A3
:102B600009F095D28E819F81009709F090D28881DB
:102B70009981009709F08BD28C819D81009709F093
:102B800086D2DF91CF910895A3E6B0E0E9ECF5E1BC
:102B900094C17C015B016A01A2962FAFA297DA0172
:102BA0008D919C91892B09F5F701808590E0880F24
:102BB000991FC0D1D6018D939C93009709F4DDC075
:102BC00020E030E00CC0C901880F991FD601ED91BB
:102BD000FC91E80FF91F118210822F5F3F4FF70120
:102BE000808590E02817390774F3D5018D919C9169
:102BF000892B89F000E010E03E010894611C711CF3
:102C000041E4242E312C2C0E3D1E31E2432E512C5A
:102C10004C0E5D1E27C0F701808590E0880F991F3C
:102C200089D1D5018D939C93009709F4A6C020E02B
:102C300030E011C0C901880F991FD501ED91FC91B9
:102C4000E80FF91FD7011E968D919C911F979183D4
:102C500080832F5F3F4FF701808590E02817390769
:102C60004CF3C8CFC701B301A2964FADA29799DD2F
:102C7000D70118968C91882E9924A101F301A4966E
:102C80005FAE4EAEA49760E070E034C00115110550
:102C900059F0A496AEADBFADA4972D913C91808123
:102CA00091812817390758F480819181A496AEAD9F
:102CB000BFADA4978D939C930115110541F0DA01E6
:102CC0002D913C91808191818217930728F4808116
:102CD0009181DA018D939C936F5F7F4F4E5F5F4FC1
:102CE0003296A4968EAD9FADA4970296A4969FAF00
:102CF0008EAFA497681579054CF20F5F1F4F0A300D
:102D0000110509F0AFCF40E050E020E030E08E0147
:102D10000F5B1F4FBE016F5D7F4F28C0F801E20FB0
:102D2000F31F80809180F601A081B181A20FB31FB3
:102D30008D919C9111978815990510F48D929C9214
:102D4000FB01E20FF31F80809180F501A081B1812A
:102D5000A20FB31F8D919C9111978816990610F4BC
:102D60008D929C924F5F5F4F2E5F3F4FD701189619
:102D70008C9190E0481759078CF2CD59DF4FE2E172
:102D8000B8C01F93CF93DF93EC01162F862F81508D
:102D9000823038F4AE014E5F5F4FCE01BE0121E0BC
:102DA000F3DE123011F0112341F4AE014A5F5F4FA0
:102DB000CE012496BE0120E0E7DEDF91CF911F9186
:102DC0000895629FD001739FF001829FE00DF11D75
:102DD000649FE00DF11D929FF00D839FF00D749F95
:102DE000F00D659FF00D9927729FB00DE11DF91F41
:102DF000639FB00DE11DF91FBD01CF01112408959E
:102E0000991B79E004C0991F961708F0961B881F3C
:102E10007A95C9F780950895AA1BBB1B51E107C09D
:102E2000AA1FBB1FA617B70710F0A61BB70B881F5A
:102E3000991F5A95A9F780959095BC01CD010895E9
:102E4000A1E21A2EAA1BBB1BFD010DC0AA1FBB1FAE
:102E5000EE1FFF1FA217B307E407F50720F0A21B20
:102E6000B30BE40BF50B661F771F881F991F1A948D
:102E700069F760957095809590959B01AC01BD01B7
:102E8000CF01089597FB092E05260ED057FD04D0DB
:102E9000D7DF0AD0001C38F4509540953095219525
:102EA0003F4F4F4F5F4F0895F6F79095809570957F
:102EB00061957F4F8F4F9F4F08952F923F924F9272
:102EC0005F926F927F928F929F92AF92BF92CF92BA
:102ED000DF92EF92FF920F931F93CF93DF93CDB7C3
:102EE000DEB7CA1BDB0B0FB6F894DEBF0FBECDBF3B
:102EF00009942A88398848885F846E847D848C840C
:102F00009B84AA84B984C884DF80EE80FD800C8114
:102F10001B81AA81B981CE0FD11D0FB6F894DEBFF7
:102F20000FBECDBFED010895EE0FFF1F0590F49188
:102F3000E02D0994CF93DF93BC018230910510F40A
:102F400062E070E0A091C502B091C602ED01E0E040
:102F5000F0E040E050E021C0888199818617970712
:102F600069F48A819B81309719F09383828304C02E
:102F70009093C6028093C502FE0134C0681779079A
:102F800038F44115510519F08417950708F4AC0180
:102F9000FE018A819B819C01E9012097E9F6411598
:102FA0005105A9F1CA01861B970B049708F4BA01D1
:102FB000E0E0F0E02AC08D919C911197841795076D
:102FC000F9F46417750781F412968D919C9113970B
:102FD000309719F09383828304C09093C602809344
:102FE000C502FD0132964FC0CA01861B970BFD0139
:102FF000E80FF91F6193719302978D939C9343C0DF
:10300000FD01828193819C01D9011097A1F68091E5
:10301000C3029091C402892B41F480914C0290919B
:103020004D029093C4028093C30240914E0250918E
:103030004F024115510541F44DB75EB780914A02E8
:1030400090914B02481B590B2091C3023091C4024E
:1030500024173507B0F4CA01821B930B8617970714
:1030600080F0AB014E5F5F4F8417950750F0420F21
:10307000531F5093C4024093C302F90161937193AB
:1030800002C0E0E0F0E0CF01DF91CF910895CF934F
:10309000DF93009709F450C0EC0122971B821A823B
:1030A000A091C502B091C602109709F140E050E02E
:1030B000AC17BD0708F1BB83AA83FE0121913191B2
:1030C000E20FF31FAE17BF0779F48D919C91119712
:1030D000280F391F2E5F3F4F3983288312968D9119
:1030E0009C9113979B838A834115510571F4D0936A
:1030F000C602C093C50220C012968D919C91139771
:10310000AD01009711F0DC01D3CFFA01D383C28364
:1031100021913191E20FF31FCE17DF0769F4888107
:103120009981280F391F2E5F3F4FFA013183208389
:103130008A819B8193838283DF91CF91089510E0F0
:10314000C2E8D0E003C0FE01F1DE2296C438D10708
:06315000D1F7F894FFCF57
:10315600486F77204D616E7900446F6E6500506F41
:10316600696E74733A00436F6C6C65637400506FDC
:10317600696E747300676F74636861006D560088CA
:103186001301040400D007F4010F0002080E0F100B
:1031960011120000000000000000000102020303FB
:1031A60003030404040404040404050505050505D5
:1031B60005050505050505050505060606060606B3
:1031C6000606060606060606060606060606060699
:1031D6000606060606060606060607070707070783
:1031E6000707070707070707070707070707070769
:1031F6000707070707070707070707070707070759
:103206000707070707070707070707070707070748
:103216000707070707070707070708080808080832
:103226000808080808080808080808080808080818
:103236000808080808080808080808080808080808
:1032460008080808080808080808080808080808F8
:1032560008080808080808080808080808080808E8
:1032660008080808080808080808080808080808D8
:1032760008080808080808080808080808080808C8
:1032860008080808080808080808080808080808B8
:10329600080808080808080808082000C7020000EF
:00000001FF
